{
  "contractName": "car",
  "abi": [
    {
      "constant": true,
      "inputs": [
        {
          "name": "",
          "type": "uint256"
        }
      ],
      "name": "owners",
      "outputs": [
        {
          "name": "",
          "type": "address"
        }
      ],
      "payable": false,
      "stateMutability": "view",
      "type": "function"
    },
    {
      "constant": true,
      "inputs": [],
      "name": "ForSale",
      "outputs": [
        {
          "name": "",
          "type": "bool"
        }
      ],
      "payable": false,
      "stateMutability": "view",
      "type": "function"
    },
    {
      "constant": true,
      "inputs": [],
      "name": "amountRaised",
      "outputs": [
        {
          "name": "",
          "type": "uint256"
        }
      ],
      "payable": false,
      "stateMutability": "view",
      "type": "function"
    },
    {
      "constant": true,
      "inputs": [],
      "name": "indexOwner",
      "outputs": [
        {
          "name": "",
          "type": "uint256"
        }
      ],
      "payable": false,
      "stateMutability": "view",
      "type": "function"
    },
    {
      "constant": true,
      "inputs": [],
      "name": "AutonovestAccount",
      "outputs": [
        {
          "name": "",
          "type": "address"
        }
      ],
      "payable": false,
      "stateMutability": "view",
      "type": "function"
    },
    {
      "constant": true,
      "inputs": [],
      "name": "price",
      "outputs": [
        {
          "name": "",
          "type": "uint256"
        }
      ],
      "payable": false,
      "stateMutability": "view",
      "type": "function"
    },
    {
      "constant": true,
      "inputs": [
        {
          "name": "",
          "type": "uint256"
        }
      ],
      "name": "ownerVals",
      "outputs": [
        {
          "name": "",
          "type": "uint256"
        }
      ],
      "payable": false,
      "stateMutability": "view",
      "type": "function"
    },
    {
      "constant": true,
      "inputs": [],
      "name": "carID",
      "outputs": [
        {
          "name": "",
          "type": "uint256"
        }
      ],
      "payable": false,
      "stateMutability": "view",
      "type": "function"
    },
    {
      "inputs": [
        {
          "name": "carid",
          "type": "uint256"
        },
        {
          "name": "priceofCar",
          "type": "uint256"
        }
      ],
      "payable": false,
      "stateMutability": "nonpayable",
      "type": "constructor"
    },
    {
      "constant": true,
      "inputs": [],
      "name": "getPrice",
      "outputs": [
        {
          "name": "",
          "type": "uint256"
        }
      ],
      "payable": false,
      "stateMutability": "view",
      "type": "function"
    },
    {
      "constant": true,
      "inputs": [],
      "name": "getForSale",
      "outputs": [
        {
          "name": "",
          "type": "bool"
        }
      ],
      "payable": false,
      "stateMutability": "view",
      "type": "function"
    },
    {
      "constant": true,
      "inputs": [],
      "name": "getAmountRaised",
      "outputs": [
        {
          "name": "",
          "type": "uint256"
        }
      ],
      "payable": false,
      "stateMutability": "view",
      "type": "function"
    },
    {
      "constant": false,
      "inputs": [],
      "name": "endsale",
      "outputs": [],
      "payable": false,
      "stateMutability": "nonpayable",
      "type": "function"
    },
    {
      "constant": false,
      "inputs": [
        {
          "name": "buyer",
          "type": "address"
        },
        {
          "name": "amount",
          "type": "uint256"
        }
      ],
      "name": "buy",
      "outputs": [
        {
          "name": "",
          "type": "uint256"
        }
      ],
      "payable": false,
      "stateMutability": "nonpayable",
      "type": "function"
    },
    {
      "constant": false,
      "inputs": [],
      "name": "income",
      "outputs": [],
      "payable": true,
      "stateMutability": "payable",
      "type": "function"
    }
  ],
  "bytecode": "0x6080604052600060cc5534801561001557600080fd5b5060405160408061072583398101806040528101908080519060200190929190805190602001909291905050508160018190555080600281905550600160cd60006101000a81548160ff021916908315150217905550600060038190555050506106a1806100846000396000f3006080604052600436106100d0576000357c0100000000000000000000000000000000000000000000000000000000900463ffffffff168063025e7c27146100d55780632701d40f146101425780636d1af018146101715780637b3e5e7b1461019c578063804c2cf8146101c757806382602db4146101f657806388b45046146102215780638a8bb7c81461022b57806398d5fdca14610282578063a035b1fe146102ad578063c7ac32e6146102d8578063c8b335a414610319578063cce7ec1314610330578063ea73dbd214610391575b600080fd5b3480156100e157600080fd5b50610100600480360381019080803590602001909291905050506103bc565b604051808273ffffffffffffffffffffffffffffffffffffffff1673ffffffffffffffffffffffffffffffffffffffff16815260200191505060405180910390f35b34801561014e57600080fd5b506101576103f1565b604051808215151515815260200191505060405180910390f35b34801561017d57600080fd5b50610186610404565b6040518082815260200191505060405180910390f35b3480156101a857600080fd5b506101b161040e565b6040518082815260200191505060405180910390f35b3480156101d357600080fd5b506101dc610414565b604051808215151515815260200191505060405180910390f35b34801561020257600080fd5b5061020b61042b565b6040518082815260200191505060405180910390f35b610229610431565b005b34801561023757600080fd5b50610240610510565b604051808273ffffffffffffffffffffffffffffffffffffffff1673ffffffffffffffffffffffffffffffffffffffff16815260200191505060405180910390f35b34801561028e57600080fd5b50610297610535565b6040518082815260200191505060405180910390f35b3480156102b957600080fd5b506102c261053f565b6040518082815260200191505060405180910390f35b3480156102e457600080fd5b5061030360048036038101908080359060200190929190505050610545565b6040518082815260200191505060405180910390f35b34801561032557600080fd5b5061032e61055f565b005b34801561033c57600080fd5b5061037b600480360381019080803573ffffffffffffffffffffffffffffffffffffffff1690602001909291908035906020019092919050505061058a565b6040518082815260200191505060405180910390f35b34801561039d57600080fd5b506103a661066f565b6040518082815260200191505060405180910390f35b6004816064811015156103cb57fe5b016000915054906101000a900473ffffffffffffffffffffffffffffffffffffffff1681565b60cd60009054906101000a900460ff1681565b6000600354905090565b60035481565b600060cd60009054906101000a900460ff16905090565b60cc5481565b600080600060cd60009054906101000a900460ff1615151561045257600080fd5b6002543481151561045f57fe5b049250606491505b60008210151561050b578260688360648110151561048157fe5b015402905060048260648110151561049557fe5b0160009054906101000a900473ffffffffffffffffffffffffffffffffffffffff1673ffffffffffffffffffffffffffffffffffffffff166108fc829081150290604051600060405180830381858888f193505050501580156104fc573d6000803e3d6000fd5b50818060019003925050610467565b505050565b6000809054906101000a900473ffffffffffffffffffffffffffffffffffffffff1681565b6000600254905090565b60025481565b60688160648110151561055457fe5b016000915090505481565b60025460035410151561058857600060cd60006101000a81548160ff0219169083151502179055505b565b600080600060cd60009054906101000a900460ff1615156105aa57600080fd5b6003546002540384111515156105bf57600080fd5b84915083905081600460cc546064811015156105d757fe5b0160006101000a81548173ffffffffffffffffffffffffffffffffffffffff021916908373ffffffffffffffffffffffffffffffffffffffff16021790555080606860cc5460648110151561062857fe5b0181905550836003540160038190555060cc6000815480929190600101919050555061065261055f565b606860cc5460648110151561066357fe5b01549250505092915050565b600154815600a165627a7a723058202bec3b35b07faf589c4b5fa0ed5582dbc0c6b98cc8c4b23a1bdf5dd6426e03d40029",
  "source": "pragma solidity ^0.4.17;\n\ncontract car {\n\n  address public AutonovestAccount;\n  uint public carID;\n  uint public price;\n  uint public amountRaised;\n  address[100] public owners;\n  uint[100] public ownerVals;\n  uint public indexOwner = 0;\n  bool public ForSale;\n\nconstructor (uint carid, uint priceofCar) public {\ncarID = carid;\nprice = priceofCar;\nForSale = true;\namountRaised = 0;\n}\n\nfunction getPrice() public view returns(uint) {\n  return price;\n}\n\nfunction getForSale() public view returns(bool) {\n  return ForSale;\n}\n\nfunction getAmountRaised() public view returns(uint) {\n  return amountRaised;\n}\n\nfunction endsale() public {\n  if(amountRaised>= price)\n  {\n    ForSale = false;\n  }\n}\n\nfunction buy(address buyer, uint amount)public returns (uint){\n  //replace amount with msg.value later\n      require(ForSale); //checks whether its for sale\n  /* require(msg.value <= (price-amountRaised)); */\n      require(amount <= (price-amountRaised));\n      address tempBuyer = buyer;\n      uint tempAmount = amount;\n  owners[indexOwner] = tempBuyer;\n  /* ownerVals[indexOwner]= msg.value; */\n  ownerVals[indexOwner]= tempAmount;\n  /* amountRaised = amountRaised+ msg.value; */\n  amountRaised = amountRaised+ amount;\n  indexOwner++;\n  endsale();\n  return ownerVals[indexOwner];\n  }\n\n  function income()public payable { //to be called by ride sharing comapny\n    require(!ForSale);\n    uint unitincome = msg.value / price;\n    uint256 i= owners.length;\n    for(i;i>=0;i--)\n    {\n      uint incomeVal = ownerVals[i]*unitincome;\n      owners[i].transfer(incomeVal);\n\n    }\n  }\n}\n",
  "sourcePath": "/home/devaka/My Projects/Autonovest-final/contracts/car.sol",
  "compiler": {
    "name": "solc",
    "version": "0.4.24+commit.e67f0147.Emscripten.clang"
  },
  "schemaVersion": "2.0.1",
  "updatedAt": "2018-09-12T01:06:08.761Z"
}