{
  "contractName": "carfunding",
  "abi": [
    {
      "constant": true,
      "inputs": [],
      "name": "carindex",
      "outputs": [
        {
          "name": "",
          "type": "uint256"
        }
      ],
      "payable": false,
      "stateMutability": "view",
      "type": "function"
    },
    {
      "constant": true,
      "inputs": [
        {
          "name": "",
          "type": "uint256"
        }
      ],
      "name": "carfundings",
      "outputs": [
        {
          "name": "",
          "type": "address"
        }
      ],
      "payable": false,
      "stateMutability": "view",
      "type": "function"
    },
    {
      "anonymous": false,
      "inputs": [
        {
          "indexed": false,
          "name": "carContract",
          "type": "address"
        },
        {
          "indexed": false,
          "name": "val",
          "type": "uint256"
        }
      ],
      "name": "Purchase",
      "type": "event"
    },
    {
      "anonymous": false,
      "inputs": [
        {
          "indexed": false,
          "name": "carID",
          "type": "uint256"
        },
        {
          "indexed": false,
          "name": "price",
          "type": "uint256"
        },
        {
          "indexed": false,
          "name": "contractAddress",
          "type": "address"
        }
      ],
      "name": "CarAdded",
      "type": "event"
    },
    {
      "constant": false,
      "inputs": [
        {
          "name": "carID",
          "type": "uint256"
        },
        {
          "name": "amount",
          "type": "uint256"
        }
      ],
      "name": "buy",
      "outputs": [
        {
          "name": "",
          "type": "uint256"
        }
      ],
      "payable": false,
      "stateMutability": "nonpayable",
      "type": "function"
    },
    {
      "constant": true,
      "inputs": [],
      "name": "getcarfundings",
      "outputs": [
        {
          "name": "",
          "type": "address[50]"
        }
      ],
      "payable": false,
      "stateMutability": "view",
      "type": "function"
    },
    {
      "constant": true,
      "inputs": [
        {
          "name": "carID",
          "type": "uint256"
        }
      ],
      "name": "checkforsale",
      "outputs": [
        {
          "name": "",
          "type": "bool"
        }
      ],
      "payable": false,
      "stateMutability": "view",
      "type": "function"
    },
    {
      "constant": false,
      "inputs": [
        {
          "name": "carID",
          "type": "uint256"
        },
        {
          "name": "carprice",
          "type": "uint256"
        }
      ],
      "name": "newcar",
      "outputs": [
        {
          "name": "",
          "type": "address"
        }
      ],
      "payable": false,
      "stateMutability": "nonpayable",
      "type": "function"
    },
    {
      "constant": true,
      "inputs": [],
      "name": "getNumofCars",
      "outputs": [
        {
          "name": "",
          "type": "uint256"
        }
      ],
      "payable": false,
      "stateMutability": "view",
      "type": "function"
    }
  ],
  "bytecode": "0x6080604052600060325534801561001557600080fd5b50610eca806100256000396000f300608060405260043610610083576000357c0100000000000000000000000000000000000000000000000000000000900463ffffffff16806316950b9714610088578063174d4653146100b35780631b1d7b5a146101065780635e0ea4fe1461017d578063bdb7d349146101a8578063ca9a0a5214610215578063d6febde81461025a575b600080fd5b34801561009457600080fd5b5061009d6102a5565b6040518082815260200191505060405180910390f35b3480156100bf57600080fd5b506100c86102ab565b6040518082603260200280838360005b838110156100f35780820151818401526020810190506100d8565b5050505090500191505060405180910390f35b34801561011257600080fd5b5061013b600480360381019080803590602001909291908035906020019092919050505061032c565b604051808273ffffffffffffffffffffffffffffffffffffffff1673ffffffffffffffffffffffffffffffffffffffff16815260200191505060405180910390f35b34801561018957600080fd5b50610192610464565b6040518082815260200191505060405180910390f35b3480156101b457600080fd5b506101d36004803603810190808035906020019092919050505061046e565b604051808273ffffffffffffffffffffffffffffffffffffffff1673ffffffffffffffffffffffffffffffffffffffff16815260200191505060405180910390f35b34801561022157600080fd5b50610240600480360381019080803590602001909291905050506104a3565b604051808215151515815260200191505060405180910390f35b34801561026657600080fd5b5061028f6004803603810190808035906020019092919080359060200190929190505050610580565b6040518082815260200191505060405180910390f35b60325481565b6102b3610745565b6000603280602002604051908101604052809291908260328015610322576020028201915b8160009054906101000a900473ffffffffffffffffffffffffffffffffffffffff1673ffffffffffffffffffffffffffffffffffffffff16815260200190600101908083116102d8575b5050505050905090565b60008060008410158015610341575060318411155b151561034c57600080fd5b8383610356610769565b8083815260200182815260200192505050604051809103906000f080158015610383573d6000803e3d6000fd5b5090508060008560328110151561039657fe5b0160006101000a81548173ffffffffffffffffffffffffffffffffffffffff021916908373ffffffffffffffffffffffffffffffffffffffff1602179055506032600081548092919060010191905055507f6873af1f330b0e34d9fbb31c0cba063afb6b23d077b47e18a74978617b54bf18848483604051808481526020018381526020018273ffffffffffffffffffffffffffffffffffffffff1673ffffffffffffffffffffffffffffffffffffffff168152602001935050505060405180910390a18091505092915050565b6000603254905090565b60008160328110151561047d57fe5b016000915054906101000a900473ffffffffffffffffffffffffffffffffffffffff1681565b6000806000836032811015156104b557fe5b0160009054906101000a900473ffffffffffffffffffffffffffffffffffffffff1690508073ffffffffffffffffffffffffffffffffffffffff1663804c2cf86040518163ffffffff167c0100000000000000000000000000000000000000000000000000000000028152600401602060405180830381600087803b15801561053d57600080fd5b505af1158015610551573d6000803e3d6000fd5b505050506040513d602081101561056757600080fd5b8101908080519060200190929190505050915050919050565b6000806000806000808710158015610599575060318711155b15156105a457600080fd5b603254871015156105b457600080fd5b3093506000876032811015156105c657fe5b0160009054906101000a900473ffffffffffffffffffffffffffffffffffffffff1692508291508173ffffffffffffffffffffffffffffffffffffffff1663cce7ec1385886040518363ffffffff167c0100000000000000000000000000000000000000000000000000000000028152600401808373ffffffffffffffffffffffffffffffffffffffff1673ffffffffffffffffffffffffffffffffffffffff16815260200182815260200192505050602060405180830381600087803b15801561069057600080fd5b505af11580156106a4573d6000803e3d6000fd5b505050506040513d60208110156106ba57600080fd5b810190808051906020019092919050505090507f2499a5330ab0979cc612135e7883ebc3cd5c9f7a8508f042540c34723348f6328382604051808373ffffffffffffffffffffffffffffffffffffffff1673ffffffffffffffffffffffffffffffffffffffff1681526020018281526020019250505060405180910390a18094505050505092915050565b61064060405190810160405280603290602082028038833980820191505090505090565b6040516107258061077a8339019056006080604052600060cc5534801561001557600080fd5b5060405160408061072583398101806040528101908080519060200190929190805190602001909291905050508160018190555080600281905550600160cd60006101000a81548160ff021916908315150217905550600060038190555050506106a1806100846000396000f3006080604052600436106100d0576000357c0100000000000000000000000000000000000000000000000000000000900463ffffffff168063025e7c27146100d55780632701d40f146101425780636d1af018146101715780637b3e5e7b1461019c578063804c2cf8146101c757806382602db4146101f657806388b45046146102215780638a8bb7c81461022b57806398d5fdca14610282578063a035b1fe146102ad578063c7ac32e6146102d8578063c8b335a414610319578063cce7ec1314610330578063ea73dbd214610391575b600080fd5b3480156100e157600080fd5b50610100600480360381019080803590602001909291905050506103bc565b604051808273ffffffffffffffffffffffffffffffffffffffff1673ffffffffffffffffffffffffffffffffffffffff16815260200191505060405180910390f35b34801561014e57600080fd5b506101576103f1565b604051808215151515815260200191505060405180910390f35b34801561017d57600080fd5b50610186610404565b6040518082815260200191505060405180910390f35b3480156101a857600080fd5b506101b161040e565b6040518082815260200191505060405180910390f35b3480156101d357600080fd5b506101dc610414565b604051808215151515815260200191505060405180910390f35b34801561020257600080fd5b5061020b61042b565b6040518082815260200191505060405180910390f35b610229610431565b005b34801561023757600080fd5b50610240610510565b604051808273ffffffffffffffffffffffffffffffffffffffff1673ffffffffffffffffffffffffffffffffffffffff16815260200191505060405180910390f35b34801561028e57600080fd5b50610297610535565b6040518082815260200191505060405180910390f35b3480156102b957600080fd5b506102c261053f565b6040518082815260200191505060405180910390f35b3480156102e457600080fd5b5061030360048036038101908080359060200190929190505050610545565b6040518082815260200191505060405180910390f35b34801561032557600080fd5b5061032e61055f565b005b34801561033c57600080fd5b5061037b600480360381019080803573ffffffffffffffffffffffffffffffffffffffff1690602001909291908035906020019092919050505061058a565b6040518082815260200191505060405180910390f35b34801561039d57600080fd5b506103a661066f565b6040518082815260200191505060405180910390f35b6004816064811015156103cb57fe5b016000915054906101000a900473ffffffffffffffffffffffffffffffffffffffff1681565b60cd60009054906101000a900460ff1681565b6000600354905090565b60035481565b600060cd60009054906101000a900460ff16905090565b60cc5481565b600080600060cd60009054906101000a900460ff1615151561045257600080fd5b6002543481151561045f57fe5b049250606491505b60008210151561050b578260688360648110151561048157fe5b015402905060048260648110151561049557fe5b0160009054906101000a900473ffffffffffffffffffffffffffffffffffffffff1673ffffffffffffffffffffffffffffffffffffffff166108fc829081150290604051600060405180830381858888f193505050501580156104fc573d6000803e3d6000fd5b50818060019003925050610467565b505050565b6000809054906101000a900473ffffffffffffffffffffffffffffffffffffffff1681565b6000600254905090565b60025481565b60688160648110151561055457fe5b016000915090505481565b60025460035410151561058857600060cd60006101000a81548160ff0219169083151502179055505b565b600080600060cd60009054906101000a900460ff1615156105aa57600080fd5b6003546002540384111515156105bf57600080fd5b84915083905081600460cc546064811015156105d757fe5b0160006101000a81548173ffffffffffffffffffffffffffffffffffffffff021916908373ffffffffffffffffffffffffffffffffffffffff16021790555080606860cc5460648110151561062857fe5b0181905550836003540160038190555060cc6000815480929190600101919050555061065261055f565b606860cc5460648110151561066357fe5b01549250505092915050565b600154815600a165627a7a723058202bec3b35b07faf589c4b5fa0ed5582dbc0c6b98cc8c4b23a1bdf5dd6426e03d40029a165627a7a72305820ff160450bc85bd95820d683fd1f7786ae3f00c3003fbd8da9206109900b35d590029",
  "source": "pragma solidity ^0.4.17;\n\nimport \"./car.sol\";\n\ncontract carfunding {\n\naddress[50] public carfundings;\nuint public carindex=0;\n\nevent Purchase(address carContract, uint val); //change this\nevent CarAdded(uint carID, uint price, address contractAddress);\n// buying a car\n\nfunction buy(uint carID, uint amount) public returns(uint) {\n  require(carID >= 0 && carID <= 49);\n  require(carID<carindex);\naddress buyer = this;\n\n  address temp = carfundings[carID];\n  car cartobuy = car(temp);\n\n\n\n  uint result = cartobuy.buy(buyer, amount);\n  emit Purchase(temp,result);\n  return result;\n\n  //sort out the buying function\n}\n\n/* function buy(uint carID, address buyer, uint amount) public returns(uint) {\n  require(carID >= 0 && carID <= 49);\n  require(carID<carindex);\n\n\n\n  address temp = carfundings[carID];\n  car cartobuy = car(temp);\n\n\n\n  uint result = cartobuy.buy(buyer, amount);\n  emit Purchase(temp,result);\n  return result;\n\n} */\n\n// Retrieving the carfundings array\nfunction getcarfundings() public view returns (address[50]) {\n  return carfundings;\n}\n\nfunction checkforsale(uint carID) public view returns(bool){\n  car cartocheck = car(carfundings[carID]);\n  return cartocheck.getForSale();\n}\n\nfunction newcar(uint carID, uint carprice) public returns(address)\n{\n    require(carID >= 0 && carID <= 49);\n\n    address newCarContract = new car(carID, carprice);\n    carfundings[carID] = newCarContract;\n    carindex++;\n    /* car addedcar = car(newCarContract); */\n    emit CarAdded(carID,carprice,newCarContract);\n    return newCarContract;\n}\nfunction getNumofCars() public view returns (uint){\n  return carindex;\n}\n\n\n\n}\n",
  "sourcePath": "/home/devaka/My Projects/Autonovest-final/contracts/carfunding.sol",
  "compiler": {
    "name": "solc",
    "version": "0.4.24+commit.e67f0147.Emscripten.clang"
  },
  "schemaVersion": "2.0.1",
  "updatedAt": "2018-09-02T13:30:04.674Z"
}