{
  "contractName": "carfunding",
  "abi": [
    {
      "constant": true,
      "inputs": [],
      "name": "carindex",
      "outputs": [
        {
          "name": "",
          "type": "uint256"
        }
      ],
      "payable": false,
      "stateMutability": "view",
      "type": "function"
    },
    {
      "constant": true,
      "inputs": [
        {
          "name": "",
          "type": "uint256"
        }
      ],
      "name": "carfundings",
      "outputs": [
        {
          "name": "",
          "type": "address"
        }
      ],
      "payable": false,
      "stateMutability": "view",
      "type": "function"
    },
    {
      "anonymous": false,
      "inputs": [
        {
          "indexed": false,
          "name": "carContract",
          "type": "address"
        },
        {
          "indexed": false,
          "name": "val",
          "type": "uint256"
        }
      ],
      "name": "Purchase",
      "type": "event"
    },
    {
      "anonymous": false,
      "inputs": [
        {
          "indexed": false,
          "name": "carID",
          "type": "uint256"
        },
        {
          "indexed": false,
          "name": "price",
          "type": "uint256"
        },
        {
          "indexed": false,
          "name": "contractAddress",
          "type": "address"
        }
      ],
      "name": "CarAdded",
      "type": "event"
    },
    {
      "constant": false,
      "inputs": [
        {
          "name": "carID",
          "type": "uint256"
        },
        {
          "name": "amount",
          "type": "uint256"
        }
      ],
      "name": "buy",
      "outputs": [
        {
          "name": "",
          "type": "uint256"
        }
      ],
      "payable": false,
      "stateMutability": "nonpayable",
      "type": "function"
    },
    {
      "constant": true,
      "inputs": [],
      "name": "getcarfundings",
      "outputs": [
        {
          "name": "",
          "type": "address[50]"
        }
      ],
      "payable": false,
      "stateMutability": "view",
      "type": "function"
    },
    {
      "constant": true,
      "inputs": [
        {
          "name": "carID",
          "type": "uint256"
        }
      ],
      "name": "checkforsale",
      "outputs": [
        {
          "name": "",
          "type": "bool"
        }
      ],
      "payable": false,
      "stateMutability": "view",
      "type": "function"
    },
    {
      "constant": false,
      "inputs": [
        {
          "name": "carID",
          "type": "uint256"
        }
      ],
      "name": "newcar",
      "outputs": [
        {
          "name": "",
          "type": "uint256"
        }
      ],
      "payable": false,
      "stateMutability": "nonpayable",
      "type": "function"
    },
    {
      "constant": true,
      "inputs": [],
      "name": "getNumofCars",
      "outputs": [
        {
          "name": "",
          "type": "uint256"
        }
      ],
      "payable": false,
      "stateMutability": "view",
      "type": "function"
    }
  ],
  "bytecode": "0x6080604052600060325534801561001557600080fd5b50610631806100256000396000f300608060405260043610610083576000357c0100000000000000000000000000000000000000000000000000000000900463ffffffff16806316950b9714610088578063174d4653146100b35780635e0ea4fe14610106578063b442748b14610131578063bdb7d34914610172578063ca9a0a52146101df578063d6febde814610224575b600080fd5b34801561009457600080fd5b5061009d61026f565b6040518082815260200191505060405180910390f35b3480156100bf57600080fd5b506100c8610275565b6040518082603260200280838360005b838110156100f35780820151818401526020810190506100d8565b5050505090500191505060405180910390f35b34801561011257600080fd5b5061011b6102f6565b6040518082815260200191505060405180910390f35b34801561013d57600080fd5b5061015c60048036038101908080359060200190929190505050610300565b6040518082815260200191505060405180910390f35b34801561017e57600080fd5b5061019d6004803603810190808035906020019092919050505061030a565b604051808273ffffffffffffffffffffffffffffffffffffffff1673ffffffffffffffffffffffffffffffffffffffff16815260200191505060405180910390f35b3480156101eb57600080fd5b5061020a6004803603810190808035906020019092919050505061033f565b604051808215151515815260200191505060405180910390f35b34801561023057600080fd5b50610259600480360381019080803590602001909291908035906020019092919050505061041c565b6040518082815260200191505060405180910390f35b60325481565b61027d6105e1565b60006032806020026040519081016040528092919082603280156102ec576020028201915b8160009054906101000a900473ffffffffffffffffffffffffffffffffffffffff1673ffffffffffffffffffffffffffffffffffffffff16815260200190600101908083116102a2575b5050505050905090565b6000603254905090565b6000819050919050565b60008160328110151561031957fe5b016000915054906101000a900473ffffffffffffffffffffffffffffffffffffffff1681565b60008060008360328110151561035157fe5b0160009054906101000a900473ffffffffffffffffffffffffffffffffffffffff1690508073ffffffffffffffffffffffffffffffffffffffff1663804c2cf86040518163ffffffff167c0100000000000000000000000000000000000000000000000000000000028152600401602060405180830381600087803b1580156103d957600080fd5b505af11580156103ed573d6000803e3d6000fd5b505050506040513d602081101561040357600080fd5b8101908080519060200190929190505050915050919050565b6000806000806000808710158015610435575060318711155b151561044057600080fd5b6032548710151561045057600080fd5b30935060008760328110151561046257fe5b0160009054906101000a900473ffffffffffffffffffffffffffffffffffffffff1692508291508173ffffffffffffffffffffffffffffffffffffffff1663cce7ec1385886040518363ffffffff167c0100000000000000000000000000000000000000000000000000000000028152600401808373ffffffffffffffffffffffffffffffffffffffff1673ffffffffffffffffffffffffffffffffffffffff16815260200182815260200192505050602060405180830381600087803b15801561052c57600080fd5b505af1158015610540573d6000803e3d6000fd5b505050506040513d602081101561055657600080fd5b810190808051906020019092919050505090507f2499a5330ab0979cc612135e7883ebc3cd5c9f7a8508f042540c34723348f6328382604051808373ffffffffffffffffffffffffffffffffffffffff1673ffffffffffffffffffffffffffffffffffffffff1681526020018281526020019250505060405180910390a18094505050505092915050565b610640604051908101604052806032906020820280388339808201915050905050905600a165627a7a723058200af6add9004790856048bbc107152b81a8076e237cddf071a3776787f6564a800029",
  "source": "pragma solidity ^0.4.17;\n\nimport \"./car.sol\";\n\ncontract carfunding {\n\naddress[50] public carfundings;\nuint public carindex=0;\n\nevent Purchase(address carContract, uint val); //change this\nevent CarAdded(uint carID, uint price, address contractAddress);\n// buying a car\n\nfunction buy(uint carID, uint amount) public returns(uint) {\n  require(carID >= 0 && carID <= 49);\n  require(carID<carindex);\naddress buyer = this;\n\n  address temp = carfundings[carID];\n  car cartobuy = car(temp);\n\n\n\n  uint result = cartobuy.buy(buyer, amount);\n  emit Purchase(temp,result);\n  return result;\n\n  //sort out the buying function\n}\n\n/* function buy(uint carID, address buyer, uint amount) public returns(uint) {\n  require(carID >= 0 && carID <= 49);\n  require(carID<carindex);\n\n\n\n  address temp = carfundings[carID];\n  car cartobuy = car(temp);\n\n\n\n  uint result = cartobuy.buy(buyer, amount);\n  emit Purchase(temp,result);\n  return result;\n\n} */\n\n// Retrieving the carfundings array\nfunction getcarfundings() public view returns (address[50]) {\n  return carfundings;\n}\n\nfunction checkforsale(uint carID) public view returns(bool){\n  car cartocheck = car(carfundings[carID]);\n  return cartocheck.getForSale();\n}\n\n/* function newcar(uint carID, uint carprice) public returns(address)\n{\n    require(carID >= 0 && carID <= 49);\n\n    address newCarContract = new car(carID, carprice);\n    carfundings[carID] = newCarContract;\n    carindex++;\n    // car addedcar = car(newCarContract); \n    emit CarAdded(carID,carprice,newCarContract);\n    return newCarContract;\n} */\nfunction newcar(uint carID) public returns(uint)\n{\n\n    return carID;\n}\nfunction getNumofCars() public view returns (uint){\n  return carindex;\n}\n\n\n\n}\n",
  "sourcePath": "/home/devaka/My Projects/Autonovest-final/contracts/carfunding.sol",
  "compiler": {
    "name": "solc",
    "version": "0.4.24+commit.e67f0147.Emscripten.clang"
  },
  "schemaVersion": "2.0.1",
  "updatedAt": "2018-09-03T15:59:32.431Z"
}