{
  "contractName": "carfunding",
  "abi": [
    {
      "constant": true,
      "inputs": [],
      "name": "carindex",
      "outputs": [
        {
          "name": "",
          "type": "uint256"
        }
      ],
      "payable": false,
      "stateMutability": "view",
      "type": "function"
    },
    {
      "constant": true,
      "inputs": [
        {
          "name": "",
          "type": "uint256"
        }
      ],
      "name": "carfundings",
      "outputs": [
        {
          "name": "",
          "type": "address"
        }
      ],
      "payable": false,
      "stateMutability": "view",
      "type": "function"
    },
    {
      "anonymous": false,
      "inputs": [
        {
          "indexed": false,
          "name": "carContract",
          "type": "address"
        },
        {
          "indexed": false,
          "name": "val",
          "type": "uint256"
        }
      ],
      "name": "Purchase",
      "type": "event"
    },
    {
      "anonymous": false,
      "inputs": [
        {
          "indexed": false,
          "name": "carID",
          "type": "uint256"
        },
        {
          "indexed": false,
          "name": "price",
          "type": "uint256"
        },
        {
          "indexed": false,
          "name": "contractAddress",
          "type": "address"
        }
      ],
      "name": "CarAdded",
      "type": "event"
    },
    {
      "constant": false,
      "inputs": [
        {
          "name": "carID",
          "type": "uint256"
        },
        {
          "name": "amount",
          "type": "uint256"
        }
      ],
      "name": "buy",
      "outputs": [
        {
          "name": "",
          "type": "uint256"
        }
      ],
      "payable": false,
      "stateMutability": "nonpayable",
      "type": "function"
    },
    {
      "constant": true,
      "inputs": [],
      "name": "getcarfundings",
      "outputs": [
        {
          "name": "",
          "type": "address[50]"
        }
      ],
      "payable": false,
      "stateMutability": "view",
      "type": "function"
    },
    {
      "constant": true,
      "inputs": [
        {
          "name": "carID",
          "type": "uint256"
        }
      ],
      "name": "checkforsale",
      "outputs": [
        {
          "name": "",
          "type": "bool"
        }
      ],
      "payable": false,
      "stateMutability": "view",
      "type": "function"
    },
    {
      "constant": false,
      "inputs": [
        {
          "name": "carID",
          "type": "uint256"
        },
        {
          "name": "carprice",
          "type": "uint256"
        }
      ],
      "name": "newcar",
      "outputs": [
        {
          "name": "",
          "type": "uint256"
        }
      ],
      "payable": false,
      "stateMutability": "nonpayable",
      "type": "function"
    },
    {
      "constant": true,
      "inputs": [],
      "name": "getNumofCars",
      "outputs": [
        {
          "name": "",
          "type": "uint256"
        }
      ],
      "payable": false,
      "stateMutability": "view",
      "type": "function"
    }
  ],
  "bytecode": "0x6080604052600060325534801561001557600080fd5b50610732806100256000396000f300608060405260043610610083576000357c0100000000000000000000000000000000000000000000000000000000900463ffffffff16806316950b9714610088578063174d4653146100b35780631b1d7b5a146101065780635e0ea4fe14610151578063bdb7d3491461017c578063ca9a0a52146101e9578063d6febde81461022e575b600080fd5b34801561009457600080fd5b5061009d610279565b6040518082815260200191505060405180910390f35b3480156100bf57600080fd5b506100c861027f565b6040518082603260200280838360005b838110156100f35780820151818401526020810190506100d8565b5050505090500191505060405180910390f35b34801561011257600080fd5b5061013b6004803603810190808035906020019092919080359060200190929190505050610300565b6040518082815260200191505060405180910390f35b34801561015d57600080fd5b50610166610401565b6040518082815260200191505060405180910390f35b34801561018857600080fd5b506101a76004803603810190808035906020019092919050505061040b565b604051808273ffffffffffffffffffffffffffffffffffffffff1673ffffffffffffffffffffffffffffffffffffffff16815260200191505060405180910390f35b3480156101f557600080fd5b5061021460048036038101908080359060200190929190505050610440565b604051808215151515815260200191505060405180910390f35b34801561023a57600080fd5b50610263600480360381019080803590602001909291908035906020019092919050505061051d565b6040518082815260200191505060405180910390f35b60325481565b6102876106e2565b60006032806020026040519081016040528092919082603280156102f6576020028201915b8160009054906101000a900473ffffffffffffffffffffffffffffffffffffffff1673ffffffffffffffffffffffffffffffffffffffff16815260200190600101908083116102ac575b5050505050905090565b60008060008410158015610315575060318411155b151561032057600080fd5b3090508060008560328110151561033357fe5b0160006101000a81548173ffffffffffffffffffffffffffffffffffffffff021916908373ffffffffffffffffffffffffffffffffffffffff1602179055506032600081548092919060010191905055507f6873af1f330b0e34d9fbb31c0cba063afb6b23d077b47e18a74978617b54bf18848483604051808481526020018381526020018273ffffffffffffffffffffffffffffffffffffffff1673ffffffffffffffffffffffffffffffffffffffff168152602001935050505060405180910390a18291505092915050565b6000603254905090565b60008160328110151561041a57fe5b016000915054906101000a900473ffffffffffffffffffffffffffffffffffffffff1681565b60008060008360328110151561045257fe5b0160009054906101000a900473ffffffffffffffffffffffffffffffffffffffff1690508073ffffffffffffffffffffffffffffffffffffffff1663804c2cf86040518163ffffffff167c0100000000000000000000000000000000000000000000000000000000028152600401602060405180830381600087803b1580156104da57600080fd5b505af11580156104ee573d6000803e3d6000fd5b505050506040513d602081101561050457600080fd5b8101908080519060200190929190505050915050919050565b6000806000806000808710158015610536575060318711155b151561054157600080fd5b6032548710151561055157600080fd5b30935060008760328110151561056357fe5b0160009054906101000a900473ffffffffffffffffffffffffffffffffffffffff1692508291508173ffffffffffffffffffffffffffffffffffffffff1663cce7ec1385886040518363ffffffff167c0100000000000000000000000000000000000000000000000000000000028152600401808373ffffffffffffffffffffffffffffffffffffffff1673ffffffffffffffffffffffffffffffffffffffff16815260200182815260200192505050602060405180830381600087803b15801561062d57600080fd5b505af1158015610641573d6000803e3d6000fd5b505050506040513d602081101561065757600080fd5b810190808051906020019092919050505090507f2499a5330ab0979cc612135e7883ebc3cd5c9f7a8508f042540c34723348f6328382604051808373ffffffffffffffffffffffffffffffffffffffff1673ffffffffffffffffffffffffffffffffffffffff1681526020018281526020019250505060405180910390a18094505050505092915050565b610640604051908101604052806032906020820280388339808201915050905050905600a165627a7a7230582031b6c63951a2d6a6e0aa4e42abab07cab95719b88805f4882a399e8e2d67c37a0029",
  "source": "pragma solidity ^0.4.17;\n\n/* import \"./car.sol\"; */\nimport \"./car.sol\";\n\ncontract carfunding {\n\naddress[50] public carfundings;\nuint public carindex=0;\n\nevent Purchase(address carContract, uint val); //change this\nevent CarAdded(uint carID, uint price, address contractAddress);\n// buying a car\n\nfunction buy(uint carID, uint amount) public returns(uint) {\n  require(carID >= 0 && carID <= 49);\n  require(carID<carindex);\naddress buyer = this;\n\n  address temp = carfundings[carID];\n  car cartobuy = car(temp);\n\n\n\n  uint result = cartobuy.buy(buyer, amount);\n  emit Purchase(temp,result);\n  return result;\n\n  //sort out the buying function\n}\n\n/* function buy(uint carID, address buyer, uint amount) public returns(uint) {\n  require(carID >= 0 && carID <= 49);\n  require(carID<carindex);\n\n\n\n  address temp = carfundings[carID];\n  car cartobuy = car(temp);\n\n\n\n  uint result = cartobuy.buy(buyer, amount);\n  emit Purchase(temp,result);\n  return result;\n\n} */\n\n// Retrieving the carfundings array\nfunction getcarfundings() public view returns (address[50]) {\n  return carfundings;\n}\n\nfunction checkforsale(uint carID) public view returns(bool){\n  car cartocheck = car(carfundings[carID]);\n  return cartocheck.getForSale();\n}\n\n/* function newcar(uint carID, uint carprice) public returns(uint)\n{\n    require(carID >= 0 && carID <= 49);\n\n\n    carindex= carindex+30;\n\n\n    return carindex;\n} */\nfunction newcar(uint carID, uint carprice) public returns(uint)\n{\n    require(carID >= 0 && carID <= 49);\n\n    address newCarContract = this;\n    /* address newCarContract = new car(carID, carprice); */\n    carfundings[carID] = newCarContract;\n    carindex++;\n    // car addedcar = car(newCarContract);\n    emit CarAdded(carID,carprice,newCarContract);\n    return carprice;\n}\n\nfunction getNumofCars() public view returns (uint){\n  return carindex;\n}\n\n\n\n}\n",
  "sourcePath": "/home/devaka/My Projects/Autonovest-final/contracts/carfunding.sol",
  "compiler": {
    "name": "solc",
    "version": "0.4.24+commit.e67f0147.Emscripten.clang"
  },
  "schemaVersion": "2.0.1",
  "updatedAt": "2018-09-13T07:39:33.703Z"
}