{
  "contractName": "Crowdfunding",
  "abi": [
    {
      "inputs": [],
      "payable": false,
      "stateMutability": "nonpayable",
      "type": "constructor"
    },
    {
      "constant": false,
      "inputs": [
        {
          "name": "priceofCar",
          "type": "uint256"
        },
        {
          "name": "nump",
          "type": "string"
        },
        {
          "name": "engn",
          "type": "string"
        }
      ],
      "name": "newcar",
      "outputs": [
        {
          "name": "",
          "type": "uint256"
        }
      ],
      "payable": false,
      "stateMutability": "nonpayable",
      "type": "function"
    },
    {
      "constant": false,
      "inputs": [
        {
          "name": "cid",
          "type": "uint256"
        }
      ],
      "name": "buycar",
      "outputs": [],
      "payable": true,
      "stateMutability": "payable",
      "type": "function"
    },
    {
      "constant": true,
      "inputs": [],
      "name": "getNumofCars",
      "outputs": [
        {
          "name": "",
          "type": "uint256"
        }
      ],
      "payable": false,
      "stateMutability": "view",
      "type": "function"
    },
    {
      "constant": true,
      "inputs": [
        {
          "name": "cid",
          "type": "uint256"
        }
      ],
      "name": "getPrice",
      "outputs": [
        {
          "name": "",
          "type": "uint256"
        }
      ],
      "payable": false,
      "stateMutability": "view",
      "type": "function"
    },
    {
      "constant": true,
      "inputs": [
        {
          "name": "cid",
          "type": "uint256"
        }
      ],
      "name": "getAmountRaised",
      "outputs": [
        {
          "name": "",
          "type": "uint256"
        }
      ],
      "payable": false,
      "stateMutability": "view",
      "type": "function"
    },
    {
      "constant": true,
      "inputs": [
        {
          "name": "cid",
          "type": "uint256"
        }
      ],
      "name": "getForSale",
      "outputs": [
        {
          "name": "",
          "type": "bool"
        }
      ],
      "payable": false,
      "stateMutability": "view",
      "type": "function"
    },
    {
      "constant": false,
      "inputs": [
        {
          "name": "cid",
          "type": "uint256"
        }
      ],
      "name": "carincome",
      "outputs": [],
      "payable": true,
      "stateMutability": "payable",
      "type": "function"
    },
    {
      "constant": true,
      "inputs": [],
      "name": "getBalance",
      "outputs": [
        {
          "name": "",
          "type": "uint256"
        }
      ],
      "payable": false,
      "stateMutability": "view",
      "type": "function"
    },
    {
      "constant": false,
      "inputs": [
        {
          "name": "TrxAmount",
          "type": "uint256"
        }
      ],
      "name": "increaseVolume",
      "outputs": [],
      "payable": false,
      "stateMutability": "nonpayable",
      "type": "function"
    },
    {
      "constant": false,
      "inputs": [
        {
          "name": "cid",
          "type": "uint256"
        }
      ],
      "name": "closeSale",
      "outputs": [],
      "payable": false,
      "stateMutability": "nonpayable",
      "type": "function"
    }
  ],
  "bytecode": "0x608060405234801561001057600080fd5b506000808190555060006001819055506107538061002f6000396000f3006080604052600436106100a4576000357c0100000000000000000000000000000000000000000000000000000000900463ffffffff16806312065fe0146100a95780632abacf8c146100d45780635e0ea4fe14610119578063641805ff1461014457806382a33c8914610185578063a299cfe9146101a5578063a4223d53146101d2578063ae49272f146101ff578063e3eb466f1461021f578063e7572230146102ec575b600080fd5b3480156100b557600080fd5b506100be61032d565b6040518082815260200191505060405180910390f35b3480156100e057600080fd5b506100ff6004803603810190808035906020019092919050505061034c565b604051808215151515815260200191505060405180910390f35b34801561012557600080fd5b5061012e610379565b6040518082815260200191505060405180910390f35b34801561015057600080fd5b5061016f60048036038101908080359060200190929190505050610382565b6040518082815260200191505060405180910390f35b6101a3600480360381019080803590602001909291905050506103a2565b005b3480156101b157600080fd5b506101d0600480360381019080803590602001909291905050506104a8565b005b3480156101de57600080fd5b506101fd600480360381019080803590602001909291905050506104bb565b005b61021d60048036038101908080359060200190929190505050610522565b005b34801561022b57600080fd5b506102d660048036038101908080359060200190929190803590602001908201803590602001908080601f0160208091040260200160405190810160405280939291908181526020018383808284378201915050505050509192919290803590602001908201803590602001908080601f016020809104026020016040519081016040528093929190818152602001838380828437820191505050505050919291929050505061055b565b6040518082815260200191505060405180910390f35b3480156102f857600080fd5b5061031760048036038101908080359060200190929190505050610662565b6040518082815260200191505060405180910390f35b60003073ffffffffffffffffffffffffffffffffffffffff1631905090565b60006002600083815260200190815260200160002060040160009054906101000a900460ff169050919050565b60008054905090565b600060026000838152602001908152602001600020600301549050919050565b60006103ad82610382565b6103b683610662565b0334111515156103c557600080fd5b60026000838152602001908152602001600020905060408051908101604052803373ffffffffffffffffffffffffffffffffffffffff1681526020013481525081600701600083600201600081548092919060010191905055815260200190815260200160002060008201518160000160006101000a81548173ffffffffffffffffffffffffffffffffffffffff021916908373ffffffffffffffffffffffffffffffffffffffff1602179055506020820151816001015590505034816003016000828254019250508190555061049b346104a8565b6104a4826104bb565b5050565b8060016000828254019250508190555050565b60026000828152602001908152602001600020600301546002600083815260200190815260200160002060010154141561051f5760006002600083815260200190815260200160002060040160006101000a81548160ff0219169083151502179055505b50565b60006002600083815260200190815260200160002090508060040160009054906101000a900460ff1615151561055757600080fd5b5050565b60008060008081548092919060010191905055905060e060405190810160405280828152602001868152602001600081526020016000815260200160011515815260200185815260200184815250600260008381526020019081526020016000206000820151816000015560208201518160010155604082015181600201556060820151816003015560808201518160040160006101000a81548160ff02191690831515021790555060a0820151816005019080519060200190610620929190610682565b5060c082015181600601908051906020019061063d929190610682565b5090505060026000828152602001908152602001600020600101549150509392505050565b600060026000838152602001908152602001600020600101549050919050565b828054600181600116156101000203166002900490600052602060002090601f016020900481019282601f106106c357805160ff19168380011785556106f1565b828001600101855582156106f1579182015b828111156106f05782518255916020019190600101906106d5565b5b5090506106fe9190610702565b5090565b61072491905b80821115610720576000816000905550600101610708565b5090565b905600a165627a7a72305820f0e5ffa475c217e51a3d44d4bcaf9569d817552b10e445dce5fa3a2409deca130029",
  "source": "pragma solidity ^0.4.17;\n\ncontract Crowdfunding{\n\n  uint numofcars;\n  uint TotalVolume;\n  // Defines the owners\n  struct Owner{\n    address owner_addr;\n    uint value;\n  }\n\n  struct Car{\n    uint carID;\n    uint price;\n    uint numofowners;\n    uint amountRaised;\n    bool ForSale;\n    string numplate;\n    string EngNum;\n    mapping (uint => Owner) Owners;\n  }\n\n  mapping (uint => Car) Cars;\n\n  constructor() public {\n    numofcars = 0;\n    TotalVolume = 0;\n  }\n\nfunction newcar(uint priceofCar,string nump,string engn) public returns(uint){\n  uint CARid = numofcars++;\n  //initializing numofowners, amountRaised to 0 and ForSale to true\n  Cars[CARid] = Car(CARid,priceofCar,0,0,true,nump,engn);\n\n  return Cars[CARid].price;\n}\n\nfunction buycar(uint cid) public payable{\n  require(msg.value<=getPrice(cid)-getAmountRaised(cid));\n  Car storage tempCar = Cars[cid];  \ntempCar.Owners[tempCar.numofowners++]= Owner(msg.sender,msg.value);\n  tempCar.amountRaised += msg.value;\n  increaseVolume(msg.value);\n  closeSale(cid);\n}\n\nfunction getNumofCars()public view returns(uint){\n  return numofcars;\n}\n\nfunction getPrice(uint cid) public view returns(uint){\nreturn Cars[cid].price;\n}\n\nfunction getAmountRaised(uint cid) public view returns(uint){\n  return Cars[cid].amountRaised;\n}\n\nfunction getForSale(uint cid) public view returns(bool) {\n  return Cars[cid].ForSale;\n}\n\nfunction carincome(uint cid) public payable{\nCar storage tempCar = Cars[cid];\nrequire(!tempCar.ForSale);\n// handle income and distribution\n\n\n}\n\nfunction getBalance() public view returns(uint){\n  return address(this).balance;\n}\n\nfunction increaseVolume(uint TrxAmount)public{\n  TotalVolume += TrxAmount;\n}\n\nfunction closeSale(uint cid) public{\n  if(Cars[cid].price==Cars[cid].amountRaised)\n  {\n    Cars[cid].ForSale = false;\n  }\n}\n\n\n\n\n}\n/* https://solidity.readthedocs.io/en/v0.4.21/types.html#reference-types */\n",
  "sourcePath": "/home/devaka/My Projects/Autonovest-final/contracts/Crowdfunding.sol",
  "compiler": {
    "name": "solc",
    "version": "0.4.24+commit.e67f0147.Emscripten.clang"
  },
  "schemaVersion": "2.0.1",
  "updatedAt": "2018-09-08T22:56:42.841Z"
}