{
  "contractName": "Crowdfunding",
  "abi": [
    {
      "inputs": [],
      "payable": true,
      "stateMutability": "payable",
      "type": "constructor"
    },
    {
      "constant": false,
      "inputs": [
        {
          "name": "priceofCar",
          "type": "uint256"
        },
        {
          "name": "nump",
          "type": "string"
        },
        {
          "name": "engn",
          "type": "string"
        }
      ],
      "name": "newcar",
      "outputs": [
        {
          "name": "",
          "type": "uint256"
        }
      ],
      "payable": false,
      "stateMutability": "nonpayable",
      "type": "function"
    },
    {
      "constant": false,
      "inputs": [
        {
          "name": "cid",
          "type": "uint256"
        }
      ],
      "name": "buycar",
      "outputs": [],
      "payable": true,
      "stateMutability": "payable",
      "type": "function"
    },
    {
      "constant": true,
      "inputs": [],
      "name": "getNumofCars",
      "outputs": [
        {
          "name": "",
          "type": "uint256"
        }
      ],
      "payable": false,
      "stateMutability": "view",
      "type": "function"
    },
    {
      "constant": true,
      "inputs": [
        {
          "name": "cid",
          "type": "uint256"
        }
      ],
      "name": "getPrice",
      "outputs": [
        {
          "name": "",
          "type": "uint256"
        }
      ],
      "payable": false,
      "stateMutability": "view",
      "type": "function"
    },
    {
      "constant": true,
      "inputs": [
        {
          "name": "cid",
          "type": "uint256"
        }
      ],
      "name": "getAmountRaised",
      "outputs": [
        {
          "name": "",
          "type": "uint256"
        }
      ],
      "payable": false,
      "stateMutability": "view",
      "type": "function"
    },
    {
      "constant": true,
      "inputs": [
        {
          "name": "cid",
          "type": "uint256"
        }
      ],
      "name": "getForSale",
      "outputs": [
        {
          "name": "",
          "type": "bool"
        }
      ],
      "payable": false,
      "stateMutability": "view",
      "type": "function"
    },
    {
      "constant": false,
      "inputs": [
        {
          "name": "cid",
          "type": "uint256"
        }
      ],
      "name": "carincome",
      "outputs": [],
      "payable": true,
      "stateMutability": "payable",
      "type": "function"
    },
    {
      "constant": false,
      "inputs": [
        {
          "name": "userad",
          "type": "address"
        }
      ],
      "name": "claimEarnings",
      "outputs": [],
      "payable": false,
      "stateMutability": "nonpayable",
      "type": "function"
    },
    {
      "constant": false,
      "inputs": [
        {
          "name": "cid",
          "type": "uint256"
        }
      ],
      "name": "distIncome",
      "outputs": [],
      "payable": false,
      "stateMutability": "nonpayable",
      "type": "function"
    },
    {
      "constant": true,
      "inputs": [],
      "name": "getBalance",
      "outputs": [
        {
          "name": "",
          "type": "uint256"
        }
      ],
      "payable": false,
      "stateMutability": "view",
      "type": "function"
    },
    {
      "constant": true,
      "inputs": [
        {
          "name": "userAddress",
          "type": "address"
        }
      ],
      "name": "getUserIncomeBalance",
      "outputs": [
        {
          "name": "",
          "type": "uint256"
        }
      ],
      "payable": false,
      "stateMutability": "view",
      "type": "function"
    },
    {
      "constant": true,
      "inputs": [
        {
          "name": "userAddress",
          "type": "address"
        }
      ],
      "name": "getUserBalance",
      "outputs": [
        {
          "name": "",
          "type": "uint256"
        }
      ],
      "payable": false,
      "stateMutability": "view",
      "type": "function"
    },
    {
      "constant": false,
      "inputs": [
        {
          "name": "TrxAmount",
          "type": "uint256"
        }
      ],
      "name": "increaseVolume",
      "outputs": [],
      "payable": false,
      "stateMutability": "nonpayable",
      "type": "function"
    },
    {
      "constant": false,
      "inputs": [
        {
          "name": "cid",
          "type": "uint256"
        }
      ],
      "name": "closeSale",
      "outputs": [],
      "payable": false,
      "stateMutability": "nonpayable",
      "type": "function"
    },
    {
      "constant": false,
      "inputs": [
        {
          "name": "cid",
          "type": "uint256"
        }
      ],
      "name": "deactivatecar",
      "outputs": [],
      "payable": false,
      "stateMutability": "nonpayable",
      "type": "function"
    },
    {
      "constant": true,
      "inputs": [
        {
          "name": "userAd",
          "type": "address"
        }
      ],
      "name": "totalInvesmentUser",
      "outputs": [
        {
          "name": "",
          "type": "uint256"
        }
      ],
      "payable": false,
      "stateMutability": "view",
      "type": "function"
    },
    {
      "constant": true,
      "inputs": [
        {
          "name": "userAd",
          "type": "address"
        }
      ],
      "name": "allcarsofUser",
      "outputs": [
        {
          "name": "",
          "type": "uint256"
        }
      ],
      "payable": false,
      "stateMutability": "view",
      "type": "function"
    },
    {
      "constant": false,
      "inputs": [
        {
          "name": "adduser",
          "type": "address"
        },
        {
          "name": "nameuser",
          "type": "string"
        },
        {
          "name": "emailuser",
          "type": "string"
        },
        {
          "name": "passpuser",
          "type": "string"
        }
      ],
      "name": "userverify",
      "outputs": [],
      "payable": false,
      "stateMutability": "nonpayable",
      "type": "function"
    },
    {
      "constant": true,
      "inputs": [
        {
          "name": "adduser",
          "type": "address"
        }
      ],
      "name": "getUserName",
      "outputs": [
        {
          "name": "",
          "type": "string"
        }
      ],
      "payable": false,
      "stateMutability": "view",
      "type": "function"
    },
    {
      "constant": true,
      "inputs": [
        {
          "name": "adduser",
          "type": "address"
        }
      ],
      "name": "getUsePassport",
      "outputs": [
        {
          "name": "",
          "type": "string"
        }
      ],
      "payable": false,
      "stateMutability": "view",
      "type": "function"
    },
    {
      "constant": true,
      "inputs": [
        {
          "name": "adduser",
          "type": "address"
        }
      ],
      "name": "getUserEmail",
      "outputs": [
        {
          "name": "",
          "type": "string"
        }
      ],
      "payable": false,
      "stateMutability": "view",
      "type": "function"
    },
    {
      "constant": true,
      "inputs": [
        {
          "name": "adduser",
          "type": "address"
        }
      ],
      "name": "getUserVerified",
      "outputs": [
        {
          "name": "",
          "type": "bool"
        }
      ],
      "payable": false,
      "stateMutability": "view",
      "type": "function"
    }
  ],
  "bytecode": "0x6080604052600080819055506000600181905550611681806100226000396000f300608060405260043610610128576000357c0100000000000000000000000000000000000000000000000000000000900463ffffffff1680630bff9b681461012d57806310a447461461018457806312065fe0146101db5780632abacf8c14610206578063477348921461024b57806357bdd90a146102a2578063599885a7146102f95780635e0ea4fe1461040e5780635ed6b93d14610439578063641805ff14610466578063713942f7146104a75780637a0aa29d1461050257806382a33c891461052f5780639480e9481461054f57806396c7e8081461060b5780639ab891ba146106c7578063a299cfe91461070a578063a4223d5314610737578063ae49272f14610764578063d84f55ee14610784578063e3eb466f14610840578063e75722301461090d575b600080fd5b34801561013957600080fd5b5061016e600480360381019080803573ffffffffffffffffffffffffffffffffffffffff16906020019092919050505061094e565b6040518082815260200191505060405180910390f35b34801561019057600080fd5b506101c5600480360381019080803573ffffffffffffffffffffffffffffffffffffffff1690602001909291905050506109df565b6040518082815260200191505060405180910390f35b3480156101e757600080fd5b506101f0610a2b565b6040518082815260200191505060405180910390f35b34801561021257600080fd5b5061023160048036038101908080359060200190929190505050610a4a565b604051808215151515815260200191505060405180910390f35b34801561025757600080fd5b5061028c600480360381019080803573ffffffffffffffffffffffffffffffffffffffff169060200190929190505050610a77565b6040518082815260200191505060405180910390f35b3480156102ae57600080fd5b506102e3600480360381019080803573ffffffffffffffffffffffffffffffffffffffff169060200190929190505050610a98565b6040518082815260200191505060405180910390f35b34801561030557600080fd5b5061040c600480360381019080803573ffffffffffffffffffffffffffffffffffffffff169060200190929190803590602001908201803590602001908080601f0160208091040260200160405190810160405280939291908181526020018383808284378201915050505050509192919290803590602001908201803590602001908080601f0160208091040260200160405190810160405280939291908181526020018383808284378201915050505050509192919290803590602001908201803590602001908080601f0160208091040260200160405190810160405280939291908181526020018383808284378201915050505050509192919290505050610b29565b005b34801561041a57600080fd5b50610423610c2f565b6040518082815260200191505060405180910390f35b34801561044557600080fd5b5061046460048036038101908080359060200190929190505050610c38565b005b34801561047257600080fd5b5061049160048036038101908080359060200190929190505050610c6a565b6040518082815260200191505060405180910390f35b3480156104b357600080fd5b506104e8600480360381019080803573ffffffffffffffffffffffffffffffffffffffff169060200190929190505050610c8a565b604051808215151515815260200191505060405180910390f35b34801561050e57600080fd5b5061052d60048036038101908080359060200190929190505050610ce3565b005b61054d60048036038101908080359060200190929190505050610dde565b005b34801561055b57600080fd5b50610590600480360381019080803573ffffffffffffffffffffffffffffffffffffffff169060200190929190505050610fbb565b6040518080602001828103825283818151815260200191508051906020019080838360005b838110156105d05780820151818401526020810190506105b5565b50505050905090810190601f1680156105fd5780820380516001836020036101000a031916815260200191505b509250505060405180910390f35b34801561061757600080fd5b5061064c600480360381019080803573ffffffffffffffffffffffffffffffffffffffff16906020019092919050505061109f565b6040518080602001828103825283818151815260200191508051906020019080838360005b8381101561068c578082015181840152602081019050610671565b50505050905090810190601f1680156106b95780820380516001836020036101000a031916815260200191505b509250505060405180910390f35b3480156106d357600080fd5b50610708600480360381019080803573ffffffffffffffffffffffffffffffffffffffff169060200190929190505050611183565b005b34801561071657600080fd5b506107356004803603810190808035906020019092919050505061125d565b005b34801561074357600080fd5b5061076260048036038101908080359060200190929190505050611270565b005b610782600480360381019080803590602001909291905050506112d7565b005b34801561079057600080fd5b506107c5600480360381019080803573ffffffffffffffffffffffffffffffffffffffff169060200190929190505050611322565b6040518080602001828103825283818151815260200191508051906020019080838360005b838110156108055780820151818401526020810190506107ea565b50505050905090810190601f1680156108325780820380516001836020036101000a031916815260200191505b509250505060405180910390f35b34801561084c57600080fd5b506108f760048036038101908080359060200190929190803590602001908201803590602001908080601f0160208091040260200160405190810160405280939291908181526020018383808284378201915050505050509192919290803590602001908201803590602001908080601f0160208091040260200160405190810160405280939291908181526020018383808284378201915050505050509192919290505050611406565b6040518082815260200191505060405180910390f35b34801561091957600080fd5b506109386004803603810190808035906020019092919050505061155b565b6040518082815260200191505060405180910390f35b600080600080600360008673ffffffffffffffffffffffffffffffffffffffff1673ffffffffffffffffffffffffffffffffffffffff168152602001908152602001600020925060009150600090505b82600401548110156109d4578260060160008281526020019081526020016000206001015482019150808060010191505061099e565b819350505050919050565b6000600360008373ffffffffffffffffffffffffffffffffffffffff1673ffffffffffffffffffffffffffffffffffffffff168152602001908152602001600020600501549050919050565b60003073ffffffffffffffffffffffffffffffffffffffff1631905090565b60006002600083815260200190815260200160002060040160009054906101000a900460ff169050919050565b60008173ffffffffffffffffffffffffffffffffffffffff16319050919050565b600080600080600360008673ffffffffffffffffffffffffffffffffffffffff1673ffffffffffffffffffffffffffffffffffffffff168152602001908152602001600020925060009150600090505b8260040154811015610b1e5782600601600082815260200190815260200160002060010154820191508080600101915050610ae8565b819350505050919050565b60c060405190810160405280848152602001838152602001828152602001600115158152602001600081526020016000815250600360008673ffffffffffffffffffffffffffffffffffffffff1673ffffffffffffffffffffffffffffffffffffffff1681526020019081526020016000206000820151816000019080519060200190610bb79291906115b0565b506020820151816001019080519060200190610bd49291906115b0565b506040820151816002019080519060200190610bf19291906115b0565b5060608201518160030160006101000a81548160ff0219169083151502179055506080820151816004015560a0820151816005015590505050505050565b60008054905090565b60006002600083815260200190815260200160002060070160006101000a81548160ff02191690831515021790555050565b600060026000838152602001908152602001600020600301549050919050565b6000600360008373ffffffffffffffffffffffffffffffffffffffff1673ffffffffffffffffffffffffffffffffffffffff16815260200190815260200160002060030160009054906101000a900460ff169050919050565b600080600080600260008681526020019081526020016000209350836008015492506000846008018190555060009150620186a083811515610d2157fe5b0490505b8360020154821015610dd7578084600a01600084815260200190815260200160002060020154026003600086600a01600086815260200190815260200160002060000160009054906101000a900473ffffffffffffffffffffffffffffffffffffffff1673ffffffffffffffffffffffffffffffffffffffff1673ffffffffffffffffffffffffffffffffffffffff168152602001908152602001600020600501819055508180600101925050610d25565b5050505050565b6000806000610dec84610c6a565b610df58561155b565b033411151515610e0457600080fd5b600360003373ffffffffffffffffffffffffffffffffffffffff1673ffffffffffffffffffffffffffffffffffffffff16815260200190815260200160002092508260030160009054906101000a900460ff161515610e6257600080fd5b600260008581526020019081526020016000209150610e8534836001015461157b565b90506060604051908101604052803373ffffffffffffffffffffffffffffffffffffffff1681526020013481526020018281525082600a01600084600201600081548092919060010191905055815260200190815260200160002060008201518160000160006101000a81548173ffffffffffffffffffffffffffffffffffffffff021916908373ffffffffffffffffffffffffffffffffffffffff16021790555060208201518160010155604082015181600201559050503482600301600082825401925050819055506040805190810160405280858152602001348152508360060160008560040160008154809291906001019190505581526020019081526020016000206000820151816000015560208201518160010155905050610fac3461125d565b610fb584611270565b50505050565b6060600360008373ffffffffffffffffffffffffffffffffffffffff1673ffffffffffffffffffffffffffffffffffffffff1681526020019081526020016000206001018054600181600116156101000203166002900480601f0160208091040260200160405190810160405280929190818152602001828054600181600116156101000203166002900480156110935780601f1061106857610100808354040283529160200191611093565b820191906000526020600020905b81548152906001019060200180831161107657829003601f168201915b50505050509050919050565b6060600360008373ffffffffffffffffffffffffffffffffffffffff1673ffffffffffffffffffffffffffffffffffffffff1681526020019081526020016000206002018054600181600116156101000203166002900480601f0160208091040260200160405190810160405280929190818152602001828054600181600116156101000203166002900480156111775780601f1061114c57610100808354040283529160200191611177565b820191906000526020600020905b81548152906001019060200180831161115a57829003601f168201915b50505050509050919050565b6000600360008373ffffffffffffffffffffffffffffffffffffffff1673ffffffffffffffffffffffffffffffffffffffff1681526020019081526020016000206005015490506000600360008473ffffffffffffffffffffffffffffffffffffffff1673ffffffffffffffffffffffffffffffffffffffff168152602001908152602001600020600501819055508173ffffffffffffffffffffffffffffffffffffffff166108fc829081150290604051600060405180830381858888f19350505050158015611258573d6000803e3d6000fd5b505050565b8060016000828254019250508190555050565b6002600082815260200190815260200160002060030154600260008381526020019081526020016000206001015414156112d45760006002600083815260200190815260200160002060040160006101000a81548160ff0219169083151502179055505b50565b60006002600083815260200190815260200160002090508060040160009054906101000a900460ff1615151561130c57600080fd5b3481600801600082825401925050819055505050565b6060600360008373ffffffffffffffffffffffffffffffffffffffff1673ffffffffffffffffffffffffffffffffffffffff1681526020019081526020016000206000018054600181600116156101000203166002900480601f0160208091040260200160405190810160405280929190818152602001828054600181600116156101000203166002900480156113fa5780601f106113cf576101008083540402835291602001916113fa565b820191906000526020600020905b8154815290600101906020018083116113dd57829003601f168201915b50505050509050919050565b600080600080815480929190600101919050559050610140604051908101604052808281526020018681526020016000815260200160008152602001600115158152602001858152602001848152602001600115158152602001600081526020016000815250600260008381526020019081526020016000206000820151816000015560208201518160010155604082015181600201556060820151816003015560808201518160040160006101000a81548160ff02191690831515021790555060a08201518160050190805190602001906114e39291906115b0565b5060c08201518160060190805190602001906115009291906115b0565b5060e08201518160070160006101000a81548160ff0219169083151502179055506101008201518160080155610120820151816009015590505060026000828152602001908152602001600020600101549150509392505050565b600060026000838152602001908152602001600020600101549050919050565b6000806000620f424085029150600a6005858481151561159757fe5b04018115156115a257fe5b049050809250505092915050565b828054600181600116156101000203166002900490600052602060002090601f016020900481019282601f106115f157805160ff191683800117855561161f565b8280016001018555821561161f579182015b8281111561161e578251825591602001919060010190611603565b5b50905061162c9190611630565b5090565b61165291905b8082111561164e576000816000905550600101611636565b5090565b905600a165627a7a7230582028f304d40621ce65190fa323cecac0b00c53092ee35edd73f158f86580f364c20029",
  "source": "pragma solidity ^0.4.17;\n\ncontract Crowdfunding{\n\n  uint numofcars;\n  uint TotalVolume;\n\n  // Defines the owners\n  struct Owner{\n    address owner_addr;\n    uint value;\n    uint equity; // out of 100,000\n  }\n\n  struct Car{\n    uint carID;\n    uint price;\n    uint numofowners;\n    uint amountRaised;\n    bool ForSale;\n    string numplate;\n    string EngNum;\n    bool active;\n    uint incomeBal;\n    uint millage;\n    mapping (uint => Owner) Owners;\n  }\n\n  mapping (uint => Car) Cars;\n\n\n  struct User{\n    string name;\n    string email;\n    string passportnum;\n    bool verified;\n    uint numofinvestments;\n    uint balance;\n    mapping (uint=>Ownership) Ownerships;\n  }\n\n  struct Ownership{\n    uint carid;\n    uint amount;\n  }\n\n  mapping (address=>User)Users;\n\n  constructor() public payable {\n    numofcars = 0;\n    TotalVolume = 0;\n  }\n\n\n\n\n  function newcar(uint priceofCar,string nump,string engn) public returns(uint){\n    uint CARid = numofcars++;\n    //initializing numofowners, amountRaised to 0 and ForSale to true\n    Cars[CARid] = Car(CARid,priceofCar,0,0,true,nump,engn,true,0,0);\n     //carID,price,numofowners,amountRaised,ForSale, numplate,EngNum,active,incomeBal, millage;\n\n\n    return Cars[CARid].price;\n  }\n\n  function buycar(uint cid) public payable{\n    require(msg.value<=getPrice(cid)-getAmountRaised(cid));\n    User storage tempUsr = Users[msg.sender];\n    require(tempUsr.verified);\n    /* require(Users[msg.sender].verified == true); */\n    Car storage tempCar = Cars[cid];\n\n    uint eq = equityercent(msg.value,tempCar.price);\n\n    tempCar.Owners[tempCar.numofowners++]= Owner(msg.sender,msg.value,eq);\n    tempCar.amountRaised += msg.value;\n\n    tempUsr.Ownerships[tempUsr.numofinvestments++] = Ownership(cid, msg.value);\n    increaseVolume(msg.value);\n    closeSale(cid);\n  }\n\n  function equityercent(uint investment, uint priceofCar) private pure returns(uint) {\n    //this function returns equity against 100,000\n\n    uint _numerator  = investment * 10 ** (6);\n    // with rounding of last digit\n    uint equity =  ((_numerator / priceofCar) + 5) / 10;\n    return (equity);\n  }\n\n\n  function getNumofCars()public view returns(uint){\n    return numofcars;\n  }\n\n  function getPrice(uint cid) public view returns(uint){\n    return Cars[cid].price;\n  }\n\n  function getAmountRaised(uint cid) public view returns(uint){\n    return Cars[cid].amountRaised;\n  }\n\n  function getForSale(uint cid) public view returns(bool) {\n    return Cars[cid].ForSale;\n  }\n\n  function carincome(uint cid) public payable{\n    Car storage tempCar = Cars[cid];\n    require(!tempCar.ForSale);\n    // storing income on car\n\n    tempCar.incomeBal += msg.value;\n\n  }\n\n  function claimEarnings(address userad)public {\n    uint earnings = Users[userad].balance;\n    Users[userad].balance = 0;\n    userad.transfer(earnings);\n  }\n\n  function distIncome(uint cid) public {\n    Car storage tempCar = Cars[cid];\n    uint tempBal = tempCar.incomeBal;\n    tempCar.incomeBal = 0;\n    uint i= 0;\n    uint payout = tempBal/100000;\n    for(i;i<tempCar.numofowners;i++){\n      Users[tempCar.Owners[i].owner_addr].balance = tempCar.Owners[i].equity*payout;\n    }\n\n  }\n  // to check balance of this contract\n  function getBalance() public view returns(uint){\n    return address(this).balance;\n  }\n\n  function getUserIncomeBalance(address userAddress) public view returns(uint){\n    return Users[userAddress].balance;\n  }\n\n  // to check user balance\n  function getUserBalance(address userAddress) public view returns(uint){\n    return address(userAddress).balance;\n  }\n\n  function increaseVolume(uint TrxAmount)public{\n    TotalVolume += TrxAmount;\n  }\n\n  function closeSale(uint cid) public{\n    if(Cars[cid].price==Cars[cid].amountRaised)\n    {\n      Cars[cid].ForSale = false;\n    }\n  }\n\n  function deactivatecar(uint cid) public {\n    Cars[cid].active = false;\n  }\n\n  //return total investment amount of a user\n  function totalInvesmentUser(address userAd)public view returns(uint){\n    User storage tempUser = Users[userAd];\n    uint totalInv=0;\n    for(uint x=0; x<tempUser.numofinvestments;x++)\n    {\n      totalInv = totalInv + tempUser.Ownerships[x].amount;\n    }\n\n    return totalInv;\n  }\n\n  function allcarsofUser(address userAd)public view returns(uint){\n    User storage tempUser = Users[userAd];\n    uint totalInv=0;\n    for(uint x=0; x<tempUser.numofinvestments;x++)\n    {\n      totalInv = totalInv + tempUser.Ownerships[x].amount;\n    }\n\n    return totalInv;\n  }\n  function userverify(address adduser, string nameuser, string emailuser, string passpuser)public{\n    Users[adduser] = User(nameuser,emailuser,passpuser,true,0,0);\n  }\n  function getUserName(address adduser)public view returns(string){\n    return Users[adduser].name;\n  }\n  function getUsePassport(address adduser)public view returns(string){\n    return Users[adduser].passportnum;\n  }\n  function getUserEmail(address adduser)public view returns(string){\n    return Users[adduser].email;\n  }\n  function getUserVerified(address adduser)public view returns(bool){\n    return Users[adduser].verified;\n  }\n\n\n\n}\n",
  "sourcePath": "/home/devaka/My Projects/Autonovest-final/contracts/Crowdfunding.sol",
  "compiler": {
    "name": "solc",
    "version": "0.4.24+commit.e67f0147.Emscripten.clang"
  },
  "schemaVersion": "2.0.1",
  "updatedAt": "2018-09-14T19:28:10.259Z"
}