{
  "contractName": "Crowdfunding",
  "abi": [
    {
      "constant": false,
      "inputs": [
        {
          "name": "priceofCar",
          "type": "uint256"
        },
        {
          "name": "nump",
          "type": "string"
        },
        {
          "name": "engn",
          "type": "string"
        }
      ],
      "name": "newcar",
      "outputs": [
        {
          "name": "",
          "type": "uint256"
        }
      ],
      "payable": false,
      "stateMutability": "nonpayable",
      "type": "function"
    },
    {
      "constant": false,
      "inputs": [
        {
          "name": "cid",
          "type": "uint256"
        }
      ],
      "name": "buycar",
      "outputs": [],
      "payable": true,
      "stateMutability": "payable",
      "type": "function"
    },
    {
      "constant": true,
      "inputs": [],
      "name": "getNumofCars",
      "outputs": [
        {
          "name": "",
          "type": "uint256"
        }
      ],
      "payable": false,
      "stateMutability": "view",
      "type": "function"
    },
    {
      "constant": true,
      "inputs": [
        {
          "name": "cid",
          "type": "uint256"
        }
      ],
      "name": "getPrice",
      "outputs": [
        {
          "name": "",
          "type": "uint256"
        }
      ],
      "payable": false,
      "stateMutability": "view",
      "type": "function"
    },
    {
      "constant": true,
      "inputs": [
        {
          "name": "cid",
          "type": "uint256"
        }
      ],
      "name": "getAmountRaised",
      "outputs": [
        {
          "name": "",
          "type": "uint256"
        }
      ],
      "payable": false,
      "stateMutability": "view",
      "type": "function"
    },
    {
      "constant": true,
      "inputs": [
        {
          "name": "cid",
          "type": "uint256"
        }
      ],
      "name": "getForSale",
      "outputs": [
        {
          "name": "",
          "type": "bool"
        }
      ],
      "payable": false,
      "stateMutability": "view",
      "type": "function"
    },
    {
      "constant": false,
      "inputs": [
        {
          "name": "cid",
          "type": "uint256"
        }
      ],
      "name": "carincome",
      "outputs": [],
      "payable": true,
      "stateMutability": "payable",
      "type": "function"
    }
  ],
  "bytecode": "0x608060405234801561001057600080fd5b50610602806100206000396000f300608060405260043610610083576000357c0100000000000000000000000000000000000000000000000000000000900463ffffffff1680632abacf8c146100885780635e0ea4fe146100cd578063641805ff146100f857806382a33c8914610139578063ae49272f14610159578063e3eb466f14610179578063e757223014610246575b600080fd5b34801561009457600080fd5b506100b360048036038101908080359060200190929190505050610287565b604051808215151515815260200191505060405180910390f35b3480156100d957600080fd5b506100e26102b4565b6040518082815260200191505060405180910390f35b34801561010457600080fd5b50610123600480360381019080803590602001909291905050506102bd565b6040518082815260200191505060405180910390f35b610157600480360381019080803590602001909291905050506102dd565b005b610177600480360381019080803590602001909291905050506103d1565b005b34801561018557600080fd5b5061023060048036038101908080359060200190929190803590602001908201803590602001908080601f0160208091040260200160405190810160405280939291908181526020018383808284378201915050505050509192919290803590602001908201803590602001908080601f016020809104026020016040519081016040528093929190818152602001838380828437820191505050505050919291929050505061040a565b6040518082815260200191505060405180910390f35b34801561025257600080fd5b5061027160048036038101908080359060200190929190505050610511565b6040518082815260200191505060405180910390f35b60006001600083815260200190815260200160002060040160009054906101000a900460ff169050919050565b60008054905090565b600060016000838152602001908152602001600020600301549050919050565b60006102e8826102bd565b6102f183610511565b03341115151561030057600080fd5b60016000838152602001908152602001600020905060408051908101604052803373ffffffffffffffffffffffffffffffffffffffff1681526020013481525081600701600083600201600081548092919060010191905055815260200190815260200160002060008201518160000160006101000a81548173ffffffffffffffffffffffffffffffffffffffff021916908373ffffffffffffffffffffffffffffffffffffffff160217905550602082015181600101559050503481600301600082825401925050819055505050565b60006001600083815260200190815260200160002090508060040160009054906101000a900460ff1615151561040657600080fd5b5050565b60008060008081548092919060010191905055905060e060405190810160405280828152602001868152602001600081526020016000815260200160011515815260200185815260200184815250600160008381526020019081526020016000206000820151816000015560208201518160010155604082015181600201556060820151816003015560808201518160040160006101000a81548160ff02191690831515021790555060a08201518160050190805190602001906104cf929190610531565b5060c08201518160060190805190602001906104ec929190610531565b5090505060016000828152602001908152602001600020600101549150509392505050565b600060016000838152602001908152602001600020600101549050919050565b828054600181600116156101000203166002900490600052602060002090601f016020900481019282601f1061057257805160ff19168380011785556105a0565b828001600101855582156105a0579182015b8281111561059f578251825591602001919060010190610584565b5b5090506105ad91906105b1565b5090565b6105d391905b808211156105cf5760008160009055506001016105b7565b5090565b905600a165627a7a72305820bd7a59e7e092bb96d45ad63c12ca69f7d33669954c280452360be695d61781920029",
  "source": "pragma solidity ^0.4.17;\n\ncontract Crowdfunding{\n\n  uint numofcars;\n  // Defines the owners\n  struct Owner{\n    address owner_addr;\n    uint value;\n  }\n\n  struct Car{\n    uint carID;\n    uint price;\n    uint numofowners;\n    uint amountRaised;\n    bool ForSale;\n    string numplate;\n    string EngNum;\n    mapping (uint => Owner) Owners;\n  }\n\n  mapping (uint => Car) Cars;\n\nfunction newcar(uint priceofCar,string nump,string engn) public returns(uint){\n  uint CARid = numofcars++;\n  //initializing numofowners, amountRaised to 0 and ForSale to true\n  Cars[CARid] = Car(CARid,priceofCar,0,0,true,nump,engn);\n\n  return Cars[CARid].price;\n}\n\nfunction buycar(uint cid) public payable{\n  require(msg.value<=getPrice(cid)-getAmountRaised(cid));\n  Car storage tempCar = Cars[cid];\ntempCar.Owners[tempCar.numofowners++]= Owner(msg.sender,msg.value);\n  tempCar.amountRaised += msg.value;\n\n}\n\nfunction getNumofCars()public view returns(uint){\n  return numofcars;\n}\n\nfunction getPrice(uint cid) public view returns(uint){\nreturn Cars[cid].price;\n}\n\nfunction getAmountRaised(uint cid) public view returns(uint){\n  return Cars[cid].amountRaised;\n}\n\nfunction getForSale(uint cid) public view returns(bool) {\n  return Cars[cid].ForSale;\n}\n\nfunction carincome(uint cid) public payable{\nCar storage tempCar = Cars[cid];\nrequire(!tempCar.ForSale);\n// handle income and distribution\n}\n\n\n\n\n}\n/* https://solidity.readthedocs.io/en/v0.4.21/types.html#reference-types */\n",
  "sourcePath": "/home/devaka/My Projects/Autonovest-final/contracts/Crowdfunding.sol",
  "compiler": {
    "name": "solc",
    "version": "0.4.24+commit.e67f0147.Emscripten.clang"
  },
  "schemaVersion": "2.0.1",
  "updatedAt": "2018-09-06T12:00:35.070Z"
}