{
  "contractName": "Crowdfunding",
  "abi": [
    {
      "inputs": [],
      "payable": true,
      "stateMutability": "payable",
      "type": "constructor"
    },
    {
      "anonymous": false,
      "inputs": [
        {
          "indexed": false,
          "name": "whatshappening",
          "type": "bool"
        }
      ],
      "name": "buy",
      "type": "event"
    },
    {
      "constant": false,
      "inputs": [
        {
          "name": "priceofCar",
          "type": "uint256"
        },
        {
          "name": "nump",
          "type": "string"
        },
        {
          "name": "engn",
          "type": "string"
        }
      ],
      "name": "newcar",
      "outputs": [
        {
          "name": "",
          "type": "uint256"
        }
      ],
      "payable": false,
      "stateMutability": "nonpayable",
      "type": "function"
    },
    {
      "constant": false,
      "inputs": [
        {
          "name": "cid",
          "type": "uint256"
        }
      ],
      "name": "buycar",
      "outputs": [],
      "payable": true,
      "stateMutability": "payable",
      "type": "function"
    },
    {
      "constant": true,
      "inputs": [],
      "name": "getNumofCars",
      "outputs": [
        {
          "name": "",
          "type": "uint256"
        }
      ],
      "payable": false,
      "stateMutability": "view",
      "type": "function"
    },
    {
      "constant": true,
      "inputs": [
        {
          "name": "cid",
          "type": "uint256"
        }
      ],
      "name": "getPrice",
      "outputs": [
        {
          "name": "",
          "type": "uint256"
        }
      ],
      "payable": false,
      "stateMutability": "view",
      "type": "function"
    },
    {
      "constant": true,
      "inputs": [
        {
          "name": "cid",
          "type": "uint256"
        }
      ],
      "name": "getAmountRaised",
      "outputs": [
        {
          "name": "",
          "type": "uint256"
        }
      ],
      "payable": false,
      "stateMutability": "view",
      "type": "function"
    },
    {
      "constant": true,
      "inputs": [
        {
          "name": "cid",
          "type": "uint256"
        }
      ],
      "name": "getForSale",
      "outputs": [
        {
          "name": "",
          "type": "bool"
        }
      ],
      "payable": false,
      "stateMutability": "view",
      "type": "function"
    },
    {
      "constant": false,
      "inputs": [
        {
          "name": "cid",
          "type": "uint256"
        }
      ],
      "name": "carincome",
      "outputs": [],
      "payable": true,
      "stateMutability": "payable",
      "type": "function"
    },
    {
      "constant": true,
      "inputs": [],
      "name": "getBalance",
      "outputs": [
        {
          "name": "",
          "type": "uint256"
        }
      ],
      "payable": false,
      "stateMutability": "view",
      "type": "function"
    },
    {
      "constant": true,
      "inputs": [
        {
          "name": "userAddress",
          "type": "address"
        }
      ],
      "name": "getUserBalance",
      "outputs": [
        {
          "name": "",
          "type": "uint256"
        }
      ],
      "payable": false,
      "stateMutability": "view",
      "type": "function"
    },
    {
      "constant": false,
      "inputs": [
        {
          "name": "TrxAmount",
          "type": "uint256"
        }
      ],
      "name": "increaseVolume",
      "outputs": [],
      "payable": false,
      "stateMutability": "nonpayable",
      "type": "function"
    },
    {
      "constant": false,
      "inputs": [
        {
          "name": "cid",
          "type": "uint256"
        }
      ],
      "name": "closeSale",
      "outputs": [],
      "payable": false,
      "stateMutability": "nonpayable",
      "type": "function"
    },
    {
      "constant": false,
      "inputs": [
        {
          "name": "cid",
          "type": "uint256"
        }
      ],
      "name": "deactivatecar",
      "outputs": [],
      "payable": false,
      "stateMutability": "nonpayable",
      "type": "function"
    },
    {
      "constant": true,
      "inputs": [
        {
          "name": "userAd",
          "type": "address"
        }
      ],
      "name": "totalInvesmentUser",
      "outputs": [
        {
          "name": "",
          "type": "uint256"
        }
      ],
      "payable": false,
      "stateMutability": "view",
      "type": "function"
    },
    {
      "constant": true,
      "inputs": [
        {
          "name": "userAd",
          "type": "address"
        }
      ],
      "name": "allcarsofUser",
      "outputs": [
        {
          "name": "",
          "type": "uint256"
        }
      ],
      "payable": false,
      "stateMutability": "view",
      "type": "function"
    },
    {
      "constant": false,
      "inputs": [
        {
          "name": "adduser",
          "type": "address"
        },
        {
          "name": "nameuser",
          "type": "string"
        },
        {
          "name": "emailuser",
          "type": "string"
        },
        {
          "name": "passpuser",
          "type": "string"
        }
      ],
      "name": "userverify",
      "outputs": [],
      "payable": false,
      "stateMutability": "nonpayable",
      "type": "function"
    },
    {
      "constant": true,
      "inputs": [
        {
          "name": "adduser",
          "type": "address"
        }
      ],
      "name": "getUserName",
      "outputs": [
        {
          "name": "",
          "type": "string"
        }
      ],
      "payable": false,
      "stateMutability": "view",
      "type": "function"
    },
    {
      "constant": true,
      "inputs": [
        {
          "name": "adduser",
          "type": "address"
        }
      ],
      "name": "getUsePassport",
      "outputs": [
        {
          "name": "",
          "type": "string"
        }
      ],
      "payable": false,
      "stateMutability": "view",
      "type": "function"
    },
    {
      "constant": true,
      "inputs": [
        {
          "name": "adduser",
          "type": "address"
        }
      ],
      "name": "getUserEmail",
      "outputs": [
        {
          "name": "",
          "type": "string"
        }
      ],
      "payable": false,
      "stateMutability": "view",
      "type": "function"
    },
    {
      "constant": true,
      "inputs": [
        {
          "name": "adduser",
          "type": "address"
        }
      ],
      "name": "getUserVerified",
      "outputs": [
        {
          "name": "",
          "type": "bool"
        }
      ],
      "payable": false,
      "stateMutability": "view",
      "type": "function"
    }
  ],
  "bytecode": "0x608060405260008081905550600060018190555061130e806100226000396000f300608060405260043610610107576000357c0100000000000000000000000000000000000000000000000000000000900463ffffffff1680630bff9b681461010c57806312065fe0146101635780632abacf8c1461018e57806347734892146101d357806357bdd90a1461022a578063599885a7146102815780635e0ea4fe146103965780635ed6b93d146103c1578063641805ff146103ee578063713942f71461042f57806382a33c891461048a5780639480e948146104aa57806396c7e80814610566578063a299cfe914610622578063a4223d531461064f578063ae49272f1461067c578063d84f55ee1461069c578063e3eb466f14610758578063e757223014610825575b600080fd5b34801561011857600080fd5b5061014d600480360381019080803573ffffffffffffffffffffffffffffffffffffffff169060200190929190505050610866565b6040518082815260200191505060405180910390f35b34801561016f57600080fd5b506101786108f7565b6040518082815260200191505060405180910390f35b34801561019a57600080fd5b506101b960048036038101908080359060200190929190505050610916565b604051808215151515815260200191505060405180910390f35b3480156101df57600080fd5b50610214600480360381019080803573ffffffffffffffffffffffffffffffffffffffff169060200190929190505050610943565b6040518082815260200191505060405180910390f35b34801561023657600080fd5b5061026b600480360381019080803573ffffffffffffffffffffffffffffffffffffffff169060200190929190505050610964565b6040518082815260200191505060405180910390f35b34801561028d57600080fd5b50610394600480360381019080803573ffffffffffffffffffffffffffffffffffffffff169060200190929190803590602001908201803590602001908080601f0160208091040260200160405190810160405280939291908181526020018383808284378201915050505050509192919290803590602001908201803590602001908080601f0160208091040260200160405190810160405280939291908181526020018383808284378201915050505050509192919290803590602001908201803590602001908080601f01602080910402602001604051908101604052809392919081815260200183838082843782019150505050505091929192905050506109f5565b005b3480156103a257600080fd5b506103ab610aea565b6040518082815260200191505060405180910390f35b3480156103cd57600080fd5b506103ec60048036038101908080359060200190929190505050610af3565b005b3480156103fa57600080fd5b5061041960048036038101908080359060200190929190505050610b25565b6040518082815260200191505060405180910390f35b34801561043b57600080fd5b50610470600480360381019080803573ffffffffffffffffffffffffffffffffffffffff169060200190929190505050610b45565b604051808215151515815260200191505060405180910390f35b6104a860048036038101908080359060200190929190505050610b9e565b005b3480156104b657600080fd5b506104eb600480360381019080803573ffffffffffffffffffffffffffffffffffffffff169060200190929190505050610d57565b6040518080602001828103825283818151815260200191508051906020019080838360005b8381101561052b578082015181840152602081019050610510565b50505050905090810190601f1680156105585780820380516001836020036101000a031916815260200191505b509250505060405180910390f35b34801561057257600080fd5b506105a7600480360381019080803573ffffffffffffffffffffffffffffffffffffffff169060200190929190505050610e3b565b6040518080602001828103825283818151815260200191508051906020019080838360005b838110156105e75780820151818401526020810190506105cc565b50505050905090810190601f1680156106145780820380516001836020036101000a031916815260200191505b509250505060405180910390f35b34801561062e57600080fd5b5061064d60048036038101908080359060200190929190505050610f1f565b005b34801561065b57600080fd5b5061067a60048036038101908080359060200190929190505050610f32565b005b61069a60048036038101908080359060200190929190505050610f99565b005b3480156106a857600080fd5b506106dd600480360381019080803573ffffffffffffffffffffffffffffffffffffffff169060200190929190505050610fe4565b6040518080602001828103825283818151815260200191508051906020019080838360005b8381101561071d578082015181840152602081019050610702565b50505050905090810190601f16801561074a5780820380516001836020036101000a031916815260200191505b509250505060405180910390f35b34801561076457600080fd5b5061080f60048036038101908080359060200190929190803590602001908201803590602001908080601f0160208091040260200160405190810160405280939291908181526020018383808284378201915050505050509192919290803590602001908201803590602001908080601f01602080910402602001604051908101604052809392919081815260200183838082843782019150505050505091929192905050506110c8565b6040518082815260200191505060405180910390f35b34801561083157600080fd5b506108506004803603810190808035906020019092919050505061121d565b6040518082815260200191505060405180910390f35b600080600080600360008673ffffffffffffffffffffffffffffffffffffffff1673ffffffffffffffffffffffffffffffffffffffff168152602001908152602001600020925060009150600090505b82600401548110156108ec57826005016000828152602001908152602001600020600101548201915080806001019150506108b6565b819350505050919050565b60003073ffffffffffffffffffffffffffffffffffffffff1631905090565b60006002600083815260200190815260200160002060040160009054906101000a900460ff169050919050565b60008173ffffffffffffffffffffffffffffffffffffffff16319050919050565b600080600080600360008673ffffffffffffffffffffffffffffffffffffffff1673ffffffffffffffffffffffffffffffffffffffff168152602001908152602001600020925060009150600090505b82600401548110156109ea57826005016000828152602001908152602001600020600101548201915080806001019150506109b4565b819350505050919050565b60a0604051908101604052808481526020018381526020018281526020016001151581526020016000815250600360008673ffffffffffffffffffffffffffffffffffffffff1673ffffffffffffffffffffffffffffffffffffffff1681526020019081526020016000206000820151816000019080519060200190610a7c92919061123d565b506020820151816001019080519060200190610a9992919061123d565b506040820151816002019080519060200190610ab692919061123d565b5060608201518160030160006101000a81548160ff0219169083151502179055506080820151816004015590505050505050565b60008054905090565b60006002600083815260200190815260200160002060070160006101000a81548160ff02191690831515021790555050565b600060026000838152602001908152602001600020600301549050919050565b6000600360008373ffffffffffffffffffffffffffffffffffffffff1673ffffffffffffffffffffffffffffffffffffffff16815260200190815260200160002060030160009054906101000a900460ff169050919050565b600080610baa83610b25565b610bb38461121d565b033411151515610bc257600080fd5b600360003373ffffffffffffffffffffffffffffffffffffffff1673ffffffffffffffffffffffffffffffffffffffff16815260200190815260200160002091508160030160009054906101000a900460ff161515610c2057600080fd5b60026000848152602001908152602001600020905060408051908101604052803373ffffffffffffffffffffffffffffffffffffffff1681526020013481525081600a01600083600201600081548092919060010191905055815260200190815260200160002060008201518160000160006101000a81548173ffffffffffffffffffffffffffffffffffffffff021916908373ffffffffffffffffffffffffffffffffffffffff160217905550602082015181600101559050503481600301600082825401925050819055506040805190810160405280848152602001348152508260050160008460040160008154809291906001019190505581526020019081526020016000206000820151816000015560208201518160010155905050610d4934610f1f565b610d5283610f32565b505050565b6060600360008373ffffffffffffffffffffffffffffffffffffffff1673ffffffffffffffffffffffffffffffffffffffff1681526020019081526020016000206001018054600181600116156101000203166002900480601f016020809104026020016040519081016040528092919081815260200182805460018160011615610100020316600290048015610e2f5780601f10610e0457610100808354040283529160200191610e2f565b820191906000526020600020905b815481529060010190602001808311610e1257829003601f168201915b50505050509050919050565b6060600360008373ffffffffffffffffffffffffffffffffffffffff1673ffffffffffffffffffffffffffffffffffffffff1681526020019081526020016000206002018054600181600116156101000203166002900480601f016020809104026020016040519081016040528092919081815260200182805460018160011615610100020316600290048015610f135780601f10610ee857610100808354040283529160200191610f13565b820191906000526020600020905b815481529060010190602001808311610ef657829003601f168201915b50505050509050919050565b8060016000828254019250508190555050565b600260008281526020019081526020016000206003015460026000838152602001908152602001600020600101541415610f965760006002600083815260200190815260200160002060040160006101000a81548160ff0219169083151502179055505b50565b60006002600083815260200190815260200160002090508060040160009054906101000a900460ff16151515610fce57600080fd5b3481600801600082825401925050819055505050565b6060600360008373ffffffffffffffffffffffffffffffffffffffff1673ffffffffffffffffffffffffffffffffffffffff1681526020019081526020016000206000018054600181600116156101000203166002900480601f0160208091040260200160405190810160405280929190818152602001828054600181600116156101000203166002900480156110bc5780601f10611091576101008083540402835291602001916110bc565b820191906000526020600020905b81548152906001019060200180831161109f57829003601f168201915b50505050509050919050565b600080600080815480929190600101919050559050610140604051908101604052808281526020018681526020016000815260200160008152602001600115158152602001858152602001848152602001600115158152602001600081526020016000815250600260008381526020019081526020016000206000820151816000015560208201518160010155604082015181600201556060820151816003015560808201518160040160006101000a81548160ff02191690831515021790555060a08201518160050190805190602001906111a592919061123d565b5060c08201518160060190805190602001906111c292919061123d565b5060e08201518160070160006101000a81548160ff0219169083151502179055506101008201518160080155610120820151816009015590505060026000828152602001908152602001600020600101549150509392505050565b600060026000838152602001908152602001600020600101549050919050565b828054600181600116156101000203166002900490600052602060002090601f016020900481019282601f1061127e57805160ff19168380011785556112ac565b828001600101855582156112ac579182015b828111156112ab578251825591602001919060010190611290565b5b5090506112b991906112bd565b5090565b6112df91905b808211156112db5760008160009055506001016112c3565b5090565b905600a165627a7a72305820aa6b4cd1216d86a3b3ccac62cc37db60819b66a8991055182e1560dd4b7383980029",
  "source": "pragma solidity ^0.4.17;\n\ncontract Crowdfunding{\n\n  uint numofcars;\n  uint TotalVolume;\n\n  // Defines the owners\n  struct Owner{\n    address owner_addr;\n    uint value;\n  }\n\n  struct Car{\n    uint carID;\n    uint price;\n    uint numofowners;\n    uint amountRaised;\n    bool ForSale;\n    string numplate;\n    string EngNum;\n    bool active;\n    uint incomeBal;\n    uint millage;\n    mapping (uint => Owner) Owners;\n  }\n\n  mapping (uint => Car) Cars;\n\n\n  struct User{\n    string name;\n    string email;\n    string passportnum;\n    bool verified;\n    uint numofinvestments;\n    mapping (uint=>Ownership) Ownerships;\n  }\n\n  struct Ownership{\n    uint carid;\n    uint amount;\n  }\n\n    mapping (address=>User)Users;\n\n  constructor() public payable {\n    numofcars = 0;\n    TotalVolume = 0;\n  }\n\nevent buy(bool whatshappening);\n\n\nfunction newcar(uint priceofCar,string nump,string engn) public returns(uint){\n  uint CARid = numofcars++;\n  //initializing numofowners, amountRaised to 0 and ForSale to true\n  Cars[CARid] = Car(CARid,priceofCar,0,0,true,nump,engn,true,0,0);  //carID,price,numofowners,amountRaised,ForSale, numplate,EngNum,active,incomeBal, millage;\n\n\n  return Cars[CARid].price;\n}\n\nfunction buycar(uint cid) public payable{\n  require(msg.value<=getPrice(cid)-getAmountRaised(cid));\n    User storage tempUsr = Users[msg.sender];\n    require(tempUsr.verified);\n  /* emit buy(tempUsr.verified); */\n  /* require(Users[msg.sender].verified == true); */\n  Car storage tempCar = Cars[cid];\ntempCar.Owners[tempCar.numofowners++]= Owner(msg.sender,msg.value);\n  tempCar.amountRaised += msg.value;\n\n  tempUsr.Ownerships[tempUsr.numofinvestments++] = Ownership(cid, msg.value);\n  increaseVolume(msg.value);\n  closeSale(cid);\n}\n\nfunction getNumofCars()public view returns(uint){\n  return numofcars;\n}\n\nfunction getPrice(uint cid) public view returns(uint){\nreturn Cars[cid].price;\n}\n\nfunction getAmountRaised(uint cid) public view returns(uint){\n  return Cars[cid].amountRaised;\n}\n\nfunction getForSale(uint cid) public view returns(bool) {\n  return Cars[cid].ForSale;\n}\n\nfunction carincome(uint cid) public payable{\nCar storage tempCar = Cars[cid];\nrequire(!tempCar.ForSale);\n// storing income on car\n\ntempCar.incomeBal += msg.value;\n\n\n}\n\n// to check balance of this contract\nfunction getBalance() public view returns(uint){\n  return address(this).balance;\n}\n\n// to check user balance\nfunction getUserBalance(address userAddress) public view returns(uint){\n  return address(userAddress).balance;\n}\n\nfunction increaseVolume(uint TrxAmount)public{\n  TotalVolume += TrxAmount;\n}\n\nfunction closeSale(uint cid) public{\n  if(Cars[cid].price==Cars[cid].amountRaised)\n  {\n    Cars[cid].ForSale = false;\n  }\n}\n\nfunction deactivatecar(uint cid) public {\n  Cars[cid].active = false;\n}\n\n//return total investment amount of a user\nfunction totalInvesmentUser(address userAd)public view returns(uint){\n  User storage tempUser = Users[userAd];\n  uint totalInv=0;\n  for(uint x=0; x<tempUser.numofinvestments;x++)\n  {\n    totalInv = totalInv + tempUser.Ownerships[x].amount;\n  }\n\n  return totalInv;\n}\n\nfunction allcarsofUser(address userAd)public view returns(uint){\n  User storage tempUser = Users[userAd];\n  uint totalInv=0;\n  for(uint x=0; x<tempUser.numofinvestments;x++)\n  {\n    totalInv = totalInv + tempUser.Ownerships[x].amount;\n  }\n\n  return totalInv;\n}\nfunction userverify(address adduser, string nameuser, string emailuser, string passpuser)public{\n  Users[adduser] = User(nameuser,emailuser,passpuser,true,0);\n}\nfunction getUserName(address adduser)public view returns(string){\n  return Users[adduser].name;\n}\nfunction getUsePassport(address adduser)public view returns(string){\n  return Users[adduser].passportnum;\n}\nfunction getUserEmail(address adduser)public view returns(string){\n  return Users[adduser].email;\n}\nfunction getUserVerified(address adduser)public view returns(bool){\n  return Users[adduser].verified;\n}\n\n\n\n}\n",
  "sourcePath": "/home/devaka/My Projects/Autonovest-final/contracts/Crowdfunding.sol",
  "compiler": {
    "name": "solc",
    "version": "0.4.24+commit.e67f0147.Emscripten.clang"
  },
  "schemaVersion": "2.0.1",
  "updatedAt": "2018-09-11T22:59:53.766Z"
}