{
  "contractName": "Crowdfunding",
  "abi": [
    {
      "inputs": [],
      "payable": true,
      "stateMutability": "payable",
      "type": "constructor"
    },
    {
      "constant": false,
      "inputs": [
        {
          "name": "priceofCar",
          "type": "uint256"
        },
        {
          "name": "nump",
          "type": "string"
        },
        {
          "name": "engn",
          "type": "string"
        }
      ],
      "name": "newcar",
      "outputs": [
        {
          "name": "",
          "type": "uint256"
        }
      ],
      "payable": false,
      "stateMutability": "nonpayable",
      "type": "function"
    },
    {
      "constant": false,
      "inputs": [
        {
          "name": "cid",
          "type": "uint256"
        }
      ],
      "name": "buycar",
      "outputs": [],
      "payable": true,
      "stateMutability": "payable",
      "type": "function"
    },
    {
      "constant": true,
      "inputs": [],
      "name": "getNumofCars",
      "outputs": [
        {
          "name": "",
          "type": "uint256"
        }
      ],
      "payable": false,
      "stateMutability": "view",
      "type": "function"
    },
    {
      "constant": true,
      "inputs": [
        {
          "name": "cid",
          "type": "uint256"
        }
      ],
      "name": "getPrice",
      "outputs": [
        {
          "name": "",
          "type": "uint256"
        }
      ],
      "payable": false,
      "stateMutability": "view",
      "type": "function"
    },
    {
      "constant": true,
      "inputs": [
        {
          "name": "cid",
          "type": "uint256"
        }
      ],
      "name": "getAmountRaised",
      "outputs": [
        {
          "name": "",
          "type": "uint256"
        }
      ],
      "payable": false,
      "stateMutability": "view",
      "type": "function"
    },
    {
      "constant": true,
      "inputs": [
        {
          "name": "cid",
          "type": "uint256"
        }
      ],
      "name": "getForSale",
      "outputs": [
        {
          "name": "",
          "type": "bool"
        }
      ],
      "payable": false,
      "stateMutability": "view",
      "type": "function"
    },
    {
      "constant": false,
      "inputs": [
        {
          "name": "cid",
          "type": "uint256"
        }
      ],
      "name": "carincome",
      "outputs": [],
      "payable": true,
      "stateMutability": "payable",
      "type": "function"
    },
    {
      "constant": false,
      "inputs": [
        {
          "name": "cid",
          "type": "uint256"
        }
      ],
      "name": "distIncome",
      "outputs": [],
      "payable": false,
      "stateMutability": "nonpayable",
      "type": "function"
    },
    {
      "constant": true,
      "inputs": [],
      "name": "getBalance",
      "outputs": [
        {
          "name": "",
          "type": "uint256"
        }
      ],
      "payable": false,
      "stateMutability": "view",
      "type": "function"
    },
    {
      "constant": true,
      "inputs": [
        {
          "name": "userAddress",
          "type": "address"
        }
      ],
      "name": "getUserIncomeBalance",
      "outputs": [
        {
          "name": "",
          "type": "uint256"
        }
      ],
      "payable": false,
      "stateMutability": "view",
      "type": "function"
    },
    {
      "constant": true,
      "inputs": [
        {
          "name": "userAddress",
          "type": "address"
        }
      ],
      "name": "getUserBalance",
      "outputs": [
        {
          "name": "",
          "type": "uint256"
        }
      ],
      "payable": false,
      "stateMutability": "view",
      "type": "function"
    },
    {
      "constant": false,
      "inputs": [
        {
          "name": "TrxAmount",
          "type": "uint256"
        }
      ],
      "name": "increaseVolume",
      "outputs": [],
      "payable": false,
      "stateMutability": "nonpayable",
      "type": "function"
    },
    {
      "constant": false,
      "inputs": [
        {
          "name": "cid",
          "type": "uint256"
        }
      ],
      "name": "closeSale",
      "outputs": [],
      "payable": false,
      "stateMutability": "nonpayable",
      "type": "function"
    },
    {
      "constant": false,
      "inputs": [
        {
          "name": "cid",
          "type": "uint256"
        }
      ],
      "name": "deactivatecar",
      "outputs": [],
      "payable": false,
      "stateMutability": "nonpayable",
      "type": "function"
    },
    {
      "constant": true,
      "inputs": [
        {
          "name": "userAd",
          "type": "address"
        }
      ],
      "name": "totalInvesmentUser",
      "outputs": [
        {
          "name": "",
          "type": "uint256"
        }
      ],
      "payable": false,
      "stateMutability": "view",
      "type": "function"
    },
    {
      "constant": true,
      "inputs": [
        {
          "name": "userAd",
          "type": "address"
        }
      ],
      "name": "allcarsofUser",
      "outputs": [
        {
          "name": "",
          "type": "uint256"
        }
      ],
      "payable": false,
      "stateMutability": "view",
      "type": "function"
    },
    {
      "constant": false,
      "inputs": [
        {
          "name": "adduser",
          "type": "address"
        },
        {
          "name": "nameuser",
          "type": "string"
        },
        {
          "name": "emailuser",
          "type": "string"
        },
        {
          "name": "passpuser",
          "type": "string"
        }
      ],
      "name": "userverify",
      "outputs": [],
      "payable": false,
      "stateMutability": "nonpayable",
      "type": "function"
    },
    {
      "constant": true,
      "inputs": [
        {
          "name": "adduser",
          "type": "address"
        }
      ],
      "name": "getUserName",
      "outputs": [
        {
          "name": "",
          "type": "string"
        }
      ],
      "payable": false,
      "stateMutability": "view",
      "type": "function"
    },
    {
      "constant": true,
      "inputs": [
        {
          "name": "adduser",
          "type": "address"
        }
      ],
      "name": "getUsePassport",
      "outputs": [
        {
          "name": "",
          "type": "string"
        }
      ],
      "payable": false,
      "stateMutability": "view",
      "type": "function"
    },
    {
      "constant": true,
      "inputs": [
        {
          "name": "adduser",
          "type": "address"
        }
      ],
      "name": "getUserEmail",
      "outputs": [
        {
          "name": "",
          "type": "string"
        }
      ],
      "payable": false,
      "stateMutability": "view",
      "type": "function"
    },
    {
      "constant": true,
      "inputs": [
        {
          "name": "adduser",
          "type": "address"
        }
      ],
      "name": "getUserVerified",
      "outputs": [
        {
          "name": "",
          "type": "bool"
        }
      ],
      "payable": false,
      "stateMutability": "view",
      "type": "function"
    }
  ],
  "bytecode": "0x6080604052600080819055506000600181905550611559806100226000396000f30060806040526004361061011d576000357c0100000000000000000000000000000000000000000000000000000000900463ffffffff1680630bff9b681461012257806310a447461461017957806312065fe0146101d05780632abacf8c146101fb578063477348921461024057806357bdd90a14610297578063599885a7146102ee5780635e0ea4fe146104035780635ed6b93d1461042e578063641805ff1461045b578063713942f71461049c5780637a0aa29d146104f757806382a33c89146105245780639480e9481461054457806396c7e80814610600578063a299cfe9146106bc578063a4223d53146106e9578063ae49272f14610716578063d84f55ee14610736578063e3eb466f146107f2578063e7572230146108bf575b600080fd5b34801561012e57600080fd5b50610163600480360381019080803573ffffffffffffffffffffffffffffffffffffffff169060200190929190505050610900565b6040518082815260200191505060405180910390f35b34801561018557600080fd5b506101ba600480360381019080803573ffffffffffffffffffffffffffffffffffffffff169060200190929190505050610991565b6040518082815260200191505060405180910390f35b3480156101dc57600080fd5b506101e56109dd565b6040518082815260200191505060405180910390f35b34801561020757600080fd5b50610226600480360381019080803590602001909291905050506109fc565b604051808215151515815260200191505060405180910390f35b34801561024c57600080fd5b50610281600480360381019080803573ffffffffffffffffffffffffffffffffffffffff169060200190929190505050610a29565b6040518082815260200191505060405180910390f35b3480156102a357600080fd5b506102d8600480360381019080803573ffffffffffffffffffffffffffffffffffffffff169060200190929190505050610a4a565b6040518082815260200191505060405180910390f35b3480156102fa57600080fd5b50610401600480360381019080803573ffffffffffffffffffffffffffffffffffffffff169060200190929190803590602001908201803590602001908080601f0160208091040260200160405190810160405280939291908181526020018383808284378201915050505050509192919290803590602001908201803590602001908080601f0160208091040260200160405190810160405280939291908181526020018383808284378201915050505050509192919290803590602001908201803590602001908080601f0160208091040260200160405190810160405280939291908181526020018383808284378201915050505050509192919290505050610adb565b005b34801561040f57600080fd5b50610418610be1565b6040518082815260200191505060405180910390f35b34801561043a57600080fd5b5061045960048036038101908080359060200190929190505050610bea565b005b34801561046757600080fd5b5061048660048036038101908080359060200190929190505050610c1c565b6040518082815260200191505060405180910390f35b3480156104a857600080fd5b506104dd600480360381019080803573ffffffffffffffffffffffffffffffffffffffff169060200190929190505050610c3c565b604051808215151515815260200191505060405180910390f35b34801561050357600080fd5b5061052260048036038101908080359060200190929190505050610c95565b005b61054260048036038101908080359060200190929190505050610d90565b005b34801561055057600080fd5b50610585600480360381019080803573ffffffffffffffffffffffffffffffffffffffff169060200190929190505050610f6d565b6040518080602001828103825283818151815260200191508051906020019080838360005b838110156105c55780820151818401526020810190506105aa565b50505050905090810190601f1680156105f25780820380516001836020036101000a031916815260200191505b509250505060405180910390f35b34801561060c57600080fd5b50610641600480360381019080803573ffffffffffffffffffffffffffffffffffffffff169060200190929190505050611051565b6040518080602001828103825283818151815260200191508051906020019080838360005b83811015610681578082015181840152602081019050610666565b50505050905090810190601f1680156106ae5780820380516001836020036101000a031916815260200191505b509250505060405180910390f35b3480156106c857600080fd5b506106e760048036038101908080359060200190929190505050611135565b005b3480156106f557600080fd5b5061071460048036038101908080359060200190929190505050611148565b005b610734600480360381019080803590602001909291905050506111af565b005b34801561074257600080fd5b50610777600480360381019080803573ffffffffffffffffffffffffffffffffffffffff1690602001909291905050506111fa565b6040518080602001828103825283818151815260200191508051906020019080838360005b838110156107b757808201518184015260208101905061079c565b50505050905090810190601f1680156107e45780820380516001836020036101000a031916815260200191505b509250505060405180910390f35b3480156107fe57600080fd5b506108a960048036038101908080359060200190929190803590602001908201803590602001908080601f0160208091040260200160405190810160405280939291908181526020018383808284378201915050505050509192919290803590602001908201803590602001908080601f01602080910402602001604051908101604052809392919081815260200183838082843782019150505050505091929192905050506112de565b6040518082815260200191505060405180910390f35b3480156108cb57600080fd5b506108ea60048036038101908080359060200190929190505050611433565b6040518082815260200191505060405180910390f35b600080600080600360008673ffffffffffffffffffffffffffffffffffffffff1673ffffffffffffffffffffffffffffffffffffffff168152602001908152602001600020925060009150600090505b82600401548110156109865782600601600082815260200190815260200160002060010154820191508080600101915050610950565b819350505050919050565b6000600360008373ffffffffffffffffffffffffffffffffffffffff1673ffffffffffffffffffffffffffffffffffffffff168152602001908152602001600020600501549050919050565b60003073ffffffffffffffffffffffffffffffffffffffff1631905090565b60006002600083815260200190815260200160002060040160009054906101000a900460ff169050919050565b60008173ffffffffffffffffffffffffffffffffffffffff16319050919050565b600080600080600360008673ffffffffffffffffffffffffffffffffffffffff1673ffffffffffffffffffffffffffffffffffffffff168152602001908152602001600020925060009150600090505b8260040154811015610ad05782600601600082815260200190815260200160002060010154820191508080600101915050610a9a565b819350505050919050565b60c060405190810160405280848152602001838152602001828152602001600115158152602001600081526020016000815250600360008673ffffffffffffffffffffffffffffffffffffffff1673ffffffffffffffffffffffffffffffffffffffff1681526020019081526020016000206000820151816000019080519060200190610b69929190611488565b506020820151816001019080519060200190610b86929190611488565b506040820151816002019080519060200190610ba3929190611488565b5060608201518160030160006101000a81548160ff0219169083151502179055506080820151816004015560a0820151816005015590505050505050565b60008054905090565b60006002600083815260200190815260200160002060070160006101000a81548160ff02191690831515021790555050565b600060026000838152602001908152602001600020600301549050919050565b6000600360008373ffffffffffffffffffffffffffffffffffffffff1673ffffffffffffffffffffffffffffffffffffffff16815260200190815260200160002060030160009054906101000a900460ff169050919050565b600080600080600260008681526020019081526020016000209350836008015492506000846008018190555060009150620186a083811515610cd357fe5b0490505b8360020154821015610d89578084600a01600084815260200190815260200160002060020154026003600086600a01600086815260200190815260200160002060000160009054906101000a900473ffffffffffffffffffffffffffffffffffffffff1673ffffffffffffffffffffffffffffffffffffffff1673ffffffffffffffffffffffffffffffffffffffff168152602001908152602001600020600501819055508180600101925050610cd7565b5050505050565b6000806000610d9e84610c1c565b610da785611433565b033411151515610db657600080fd5b600360003373ffffffffffffffffffffffffffffffffffffffff1673ffffffffffffffffffffffffffffffffffffffff16815260200190815260200160002092508260030160009054906101000a900460ff161515610e1457600080fd5b600260008581526020019081526020016000209150610e37348360010154611453565b90506060604051908101604052803373ffffffffffffffffffffffffffffffffffffffff1681526020013481526020018281525082600a01600084600201600081548092919060010191905055815260200190815260200160002060008201518160000160006101000a81548173ffffffffffffffffffffffffffffffffffffffff021916908373ffffffffffffffffffffffffffffffffffffffff16021790555060208201518160010155604082015181600201559050503482600301600082825401925050819055506040805190810160405280858152602001348152508360060160008560040160008154809291906001019190505581526020019081526020016000206000820151816000015560208201518160010155905050610f5e34611135565b610f6784611148565b50505050565b6060600360008373ffffffffffffffffffffffffffffffffffffffff1673ffffffffffffffffffffffffffffffffffffffff1681526020019081526020016000206001018054600181600116156101000203166002900480601f0160208091040260200160405190810160405280929190818152602001828054600181600116156101000203166002900480156110455780601f1061101a57610100808354040283529160200191611045565b820191906000526020600020905b81548152906001019060200180831161102857829003601f168201915b50505050509050919050565b6060600360008373ffffffffffffffffffffffffffffffffffffffff1673ffffffffffffffffffffffffffffffffffffffff1681526020019081526020016000206002018054600181600116156101000203166002900480601f0160208091040260200160405190810160405280929190818152602001828054600181600116156101000203166002900480156111295780601f106110fe57610100808354040283529160200191611129565b820191906000526020600020905b81548152906001019060200180831161110c57829003601f168201915b50505050509050919050565b8060016000828254019250508190555050565b6002600082815260200190815260200160002060030154600260008381526020019081526020016000206001015414156111ac5760006002600083815260200190815260200160002060040160006101000a81548160ff0219169083151502179055505b50565b60006002600083815260200190815260200160002090508060040160009054906101000a900460ff161515156111e457600080fd5b3481600801600082825401925050819055505050565b6060600360008373ffffffffffffffffffffffffffffffffffffffff1673ffffffffffffffffffffffffffffffffffffffff1681526020019081526020016000206000018054600181600116156101000203166002900480601f0160208091040260200160405190810160405280929190818152602001828054600181600116156101000203166002900480156112d25780601f106112a7576101008083540402835291602001916112d2565b820191906000526020600020905b8154815290600101906020018083116112b557829003601f168201915b50505050509050919050565b600080600080815480929190600101919050559050610140604051908101604052808281526020018681526020016000815260200160008152602001600115158152602001858152602001848152602001600115158152602001600081526020016000815250600260008381526020019081526020016000206000820151816000015560208201518160010155604082015181600201556060820151816003015560808201518160040160006101000a81548160ff02191690831515021790555060a08201518160050190805190602001906113bb929190611488565b5060c08201518160060190805190602001906113d8929190611488565b5060e08201518160070160006101000a81548160ff0219169083151502179055506101008201518160080155610120820151816009015590505060026000828152602001908152602001600020600101549150509392505050565b600060026000838152602001908152602001600020600101549050919050565b6000806000620f424085029150600a6005858481151561146f57fe5b040181151561147a57fe5b049050809250505092915050565b828054600181600116156101000203166002900490600052602060002090601f016020900481019282601f106114c957805160ff19168380011785556114f7565b828001600101855582156114f7579182015b828111156114f65782518255916020019190600101906114db565b5b5090506115049190611508565b5090565b61152a91905b8082111561152657600081600090555060010161150e565b5090565b905600a165627a7a72305820c39dac5c384535f4d91cccb28f1b8f4c8fcd9e457527a0b89c102523f835656a0029",
  "source": "pragma solidity ^0.4.17;\n\ncontract Crowdfunding{\n\n  uint numofcars;\n  uint TotalVolume;\n\n  // Defines the owners\n  struct Owner{\n    address owner_addr;\n    uint value;\n    uint equity; // out of 100,000\n  }\n\n  struct Car{\n    uint carID;\n    uint price;\n    uint numofowners;\n    uint amountRaised;\n    bool ForSale;\n    string numplate;\n    string EngNum;\n    bool active;\n    uint incomeBal;\n    uint millage;\n    mapping (uint => Owner) Owners;\n  }\n\n  mapping (uint => Car) Cars;\n\n\n  struct User{\n    string name;\n    string email;\n    string passportnum;\n    bool verified;\n    uint numofinvestments;\n    uint balance;\n    mapping (uint=>Ownership) Ownerships;\n  }\n\n  struct Ownership{\n    uint carid;\n    uint amount;\n  }\n\n    mapping (address=>User)Users;\n\n  constructor() public payable {\n    numofcars = 0;\n    TotalVolume = 0;\n  }\n\n\n\n\nfunction newcar(uint priceofCar,string nump,string engn) public returns(uint){\n  uint CARid = numofcars++;\n  //initializing numofowners, amountRaised to 0 and ForSale to true\n  Cars[CARid] = Car(CARid,priceofCar,0,0,true,nump,engn,true,0,0);  //carID,price,numofowners,amountRaised,ForSale, numplate,EngNum,active,incomeBal, millage;\n\n\n  return Cars[CARid].price;\n}\n\nfunction buycar(uint cid) public payable{\n  require(msg.value<=getPrice(cid)-getAmountRaised(cid));\n    User storage tempUsr = Users[msg.sender];\n    require(tempUsr.verified);\n  /* require(Users[msg.sender].verified == true); */\n  Car storage tempCar = Cars[cid];\n\n  uint eq = equityercent(msg.value,tempCar.price);\n\n  tempCar.Owners[tempCar.numofowners++]= Owner(msg.sender,msg.value,eq);\n  tempCar.amountRaised += msg.value;\n\n  tempUsr.Ownerships[tempUsr.numofinvestments++] = Ownership(cid, msg.value);\n  increaseVolume(msg.value);\n  closeSale(cid);\n}\n\nfunction equityercent(uint investment, uint priceofCar) private pure returns(uint) {\n    //this function returns equity against 100,000\n\n        uint _numerator  = investment * 10 ** (6);\n        // with rounding of last digit\n        uint equity =  ((_numerator / priceofCar) + 5) / 10;\n        return (equity);\n  }\n\n\nfunction getNumofCars()public view returns(uint){\n  return numofcars;\n}\n\nfunction getPrice(uint cid) public view returns(uint){\nreturn Cars[cid].price;\n}\n\nfunction getAmountRaised(uint cid) public view returns(uint){\n  return Cars[cid].amountRaised;\n}\n\nfunction getForSale(uint cid) public view returns(bool) {\n  return Cars[cid].ForSale;\n}\n\nfunction carincome(uint cid) public payable{\nCar storage tempCar = Cars[cid];\nrequire(!tempCar.ForSale);\n// storing income on car\n\ntempCar.incomeBal += msg.value;\n\n}\n\nfunction distIncome(uint cid) public {\n      Car storage tempCar = Cars[cid];\n      uint tempBal = tempCar.incomeBal;\n      tempCar.incomeBal = 0;\n      uint i= 0;\n      uint payout = tempBal/100000;\n      for(i;i<tempCar.numofowners;i++){\n        Users[tempCar.Owners[i].owner_addr].balance = tempCar.Owners[i].equity*payout;\n      }\n\n}\n// to check balance of this contract\nfunction getBalance() public view returns(uint){\n  return address(this).balance;\n}\n\nfunction getUserIncomeBalance(address userAddress) public view returns(uint){\n  return Users[userAddress].balance;\n}\n\n// to check user balance\nfunction getUserBalance(address userAddress) public view returns(uint){\n  return address(userAddress).balance;\n}\n\nfunction increaseVolume(uint TrxAmount)public{\n  TotalVolume += TrxAmount;\n}\n\nfunction closeSale(uint cid) public{\n  if(Cars[cid].price==Cars[cid].amountRaised)\n  {\n    Cars[cid].ForSale = false;\n  }\n}\n\nfunction deactivatecar(uint cid) public {\n  Cars[cid].active = false;\n}\n\n//return total investment amount of a user\nfunction totalInvesmentUser(address userAd)public view returns(uint){\n  User storage tempUser = Users[userAd];\n  uint totalInv=0;\n  for(uint x=0; x<tempUser.numofinvestments;x++)\n  {\n    totalInv = totalInv + tempUser.Ownerships[x].amount;\n  }\n\n  return totalInv;\n}\n\nfunction allcarsofUser(address userAd)public view returns(uint){\n  User storage tempUser = Users[userAd];\n  uint totalInv=0;\n  for(uint x=0; x<tempUser.numofinvestments;x++)\n  {\n    totalInv = totalInv + tempUser.Ownerships[x].amount;\n  }\n\n  return totalInv;\n}\nfunction userverify(address adduser, string nameuser, string emailuser, string passpuser)public{\n  Users[adduser] = User(nameuser,emailuser,passpuser,true,0,0);\n}\nfunction getUserName(address adduser)public view returns(string){\n  return Users[adduser].name;\n}\nfunction getUsePassport(address adduser)public view returns(string){\n  return Users[adduser].passportnum;\n}\nfunction getUserEmail(address adduser)public view returns(string){\n  return Users[adduser].email;\n}\nfunction getUserVerified(address adduser)public view returns(bool){\n  return Users[adduser].verified;\n}\n\n\n\n}\n",
  "sourcePath": "/home/devaka/My Projects/Autonovest-final/contracts/Crowdfunding.sol",
  "compiler": {
    "name": "solc",
    "version": "0.4.24+commit.e67f0147.Emscripten.clang"
  },
  "schemaVersion": "2.0.1",
  "updatedAt": "2018-09-12T21:10:05.621Z"
}