{
  "contractName": "Crowdfunding",
  "abi": [
    {
      "constant": false,
      "inputs": [
        {
          "name": "priceofCar",
          "type": "uint256"
        }
      ],
      "name": "newcar",
      "outputs": [
        {
          "name": "",
          "type": "uint256"
        }
      ],
      "payable": false,
      "stateMutability": "nonpayable",
      "type": "function"
    },
    {
      "constant": false,
      "inputs": [
        {
          "name": "cid",
          "type": "uint256"
        }
      ],
      "name": "buycar",
      "outputs": [],
      "payable": true,
      "stateMutability": "payable",
      "type": "function"
    },
    {
      "constant": true,
      "inputs": [],
      "name": "getNumofCars",
      "outputs": [
        {
          "name": "",
          "type": "uint256"
        }
      ],
      "payable": false,
      "stateMutability": "view",
      "type": "function"
    },
    {
      "constant": true,
      "inputs": [
        {
          "name": "cid",
          "type": "uint256"
        }
      ],
      "name": "getPrice",
      "outputs": [
        {
          "name": "",
          "type": "uint256"
        }
      ],
      "payable": false,
      "stateMutability": "view",
      "type": "function"
    },
    {
      "constant": true,
      "inputs": [
        {
          "name": "cid",
          "type": "uint256"
        }
      ],
      "name": "getAmountRaised",
      "outputs": [
        {
          "name": "",
          "type": "uint256"
        }
      ],
      "payable": false,
      "stateMutability": "view",
      "type": "function"
    },
    {
      "constant": true,
      "inputs": [
        {
          "name": "cid",
          "type": "uint256"
        }
      ],
      "name": "getForSale",
      "outputs": [
        {
          "name": "",
          "type": "bool"
        }
      ],
      "payable": false,
      "stateMutability": "view",
      "type": "function"
    }
  ],
  "bytecode": "0x608060405234801561001057600080fd5b50610425806100206000396000f300608060405260043610610078576000357c0100000000000000000000000000000000000000000000000000000000900463ffffffff1680632abacf8c1461007d5780635e0ea4fe146100c2578063641805ff146100ed57806382a33c891461012e578063b442748b1461014e578063e75722301461018f575b600080fd5b34801561008957600080fd5b506100a8600480360381019080803590602001909291905050506101d0565b604051808215151515815260200191505060405180910390f35b3480156100ce57600080fd5b506100d76101fd565b6040518082815260200191505060405180910390f35b3480156100f957600080fd5b5061011860048036038101908080359060200190929190505050610206565b6040518082815260200191505060405180910390f35b61014c60048036038101908080359060200190929190505050610226565b005b34801561015a57600080fd5b506101796004803603810190808035906020019092919050505061031a565b6040518082815260200191505060405180910390f35b34801561019b57600080fd5b506101ba600480360381019080803590602001909291905050506103d9565b6040518082815260200191505060405180910390f35b60006001600083815260200190815260200160002060040160009054906101000a900460ff169050919050565b60008054905090565b600060016000838152602001908152602001600020600301549050919050565b600061023182610206565b61023a836103d9565b03341115151561024957600080fd5b60016000838152602001908152602001600020905060408051908101604052803373ffffffffffffffffffffffffffffffffffffffff1681526020013481525081600501600083600201600081548092919060010191905055815260200190815260200160002060008201518160000160006101000a81548173ffffffffffffffffffffffffffffffffffffffff021916908373ffffffffffffffffffffffffffffffffffffffff160217905550602082015181600101559050503481600301600082825401925050819055505050565b60008060008081548092919060010191905055905060a060405190810160405280828152602001848152602001600081526020016000815260200160011515815250600160008381526020019081526020016000206000820151816000015560208201518160010155604082015181600201556060820151816003015560808201518160040160006101000a81548160ff0219169083151502179055509050506001600082815260200190815260200160002060010154915050919050565b6000600160008381526020019081526020016000206001015490509190505600a165627a7a72305820dab7375fc39b2e98a412f872bf794a7c05f9f54182d3fb477eca962e345035c70029",
  "source": "pragma solidity ^0.4.17;\n\ncontract Crowdfunding{\n\n  uint numofcars;\n  // Defines the owners\n  struct Owner{\n    address owner_addr;\n    uint value;\n  }\n\n  struct Car{\n    uint carID;\n    uint price;\n    uint numofowners;\n    uint amountRaised;\n    bool ForSale;\n    mapping (uint => Owner) Owners;\n  }\n\n  mapping (uint => Car) Cars;\n\nfunction newcar(uint priceofCar) public returns(uint){\n  uint CARid = numofcars++;\n  //initializing numofowners, amountRaised to 0 and ForSale to true\n  Cars[CARid] = Car(CARid,priceofCar,0,0,true);\n\n  return Cars[CARid].price;\n}\n\nfunction buycar(uint cid) public payable{\n  require(msg.value<=getPrice(cid)-getAmountRaised(cid));\n  Car storage tempCar = Cars[cid];\ntempCar.Owners[tempCar.numofowners++]= Owner(msg.sender,msg.value);\n  tempCar.amountRaised += msg.value;\n\n}\n\nfunction getNumofCars()public view returns(uint){\n  return numofcars;\n}\n\nfunction getPrice(uint cid) public view returns(uint){\nreturn Cars[cid].price;\n}\n\nfunction getAmountRaised(uint cid) public view returns(uint){\n  return Cars[cid].amountRaised;\n}\n\nfunction getForSale(uint cid) public view returns(bool) {\n  return Cars[cid].ForSale;\n}\n\n\n\n\n}\n/* https://solidity.readthedocs.io/en/v0.4.21/types.html#reference-types */\n",
  "sourcePath": "/home/devaka/My Projects/Autonovest-final/contracts/Crowdfunding.sol",
  "compiler": {
    "name": "solc",
    "version": "0.4.24+commit.e67f0147.Emscripten.clang"
  },
  "schemaVersion": "2.0.1",
  "updatedAt": "2018-09-05T00:17:14.613Z"
}