{
  "contractName": "Crowdfunding",
  "abi": [
    {
      "inputs": [],
      "payable": true,
      "stateMutability": "payable",
      "type": "constructor"
    },
    {
      "constant": false,
      "inputs": [
        {
          "name": "priceofCar",
          "type": "uint256"
        },
        {
          "name": "nump",
          "type": "string"
        },
        {
          "name": "engn",
          "type": "string"
        }
      ],
      "name": "newcar",
      "outputs": [
        {
          "name": "",
          "type": "uint256"
        }
      ],
      "payable": false,
      "stateMutability": "nonpayable",
      "type": "function"
    },
    {
      "constant": false,
      "inputs": [
        {
          "name": "cid",
          "type": "uint256"
        }
      ],
      "name": "buycar",
      "outputs": [],
      "payable": true,
      "stateMutability": "payable",
      "type": "function"
    },
    {
      "constant": true,
      "inputs": [],
      "name": "getNumofCars",
      "outputs": [
        {
          "name": "",
          "type": "uint256"
        }
      ],
      "payable": false,
      "stateMutability": "view",
      "type": "function"
    },
    {
      "constant": true,
      "inputs": [
        {
          "name": "cid",
          "type": "uint256"
        }
      ],
      "name": "getPrice",
      "outputs": [
        {
          "name": "",
          "type": "uint256"
        }
      ],
      "payable": false,
      "stateMutability": "view",
      "type": "function"
    },
    {
      "constant": true,
      "inputs": [],
      "name": "getTotalVol",
      "outputs": [
        {
          "name": "",
          "type": "uint256"
        }
      ],
      "payable": false,
      "stateMutability": "view",
      "type": "function"
    },
    {
      "constant": true,
      "inputs": [
        {
          "name": "cid",
          "type": "uint256"
        }
      ],
      "name": "getAmountRaised",
      "outputs": [
        {
          "name": "",
          "type": "uint256"
        }
      ],
      "payable": false,
      "stateMutability": "view",
      "type": "function"
    },
    {
      "constant": true,
      "inputs": [
        {
          "name": "cid",
          "type": "uint256"
        }
      ],
      "name": "getForSale",
      "outputs": [
        {
          "name": "",
          "type": "bool"
        }
      ],
      "payable": false,
      "stateMutability": "view",
      "type": "function"
    },
    {
      "constant": false,
      "inputs": [
        {
          "name": "cid",
          "type": "uint256"
        }
      ],
      "name": "carincome",
      "outputs": [],
      "payable": true,
      "stateMutability": "payable",
      "type": "function"
    },
    {
      "constant": false,
      "inputs": [
        {
          "name": "userad",
          "type": "address"
        }
      ],
      "name": "claimEarnings",
      "outputs": [],
      "payable": false,
      "stateMutability": "nonpayable",
      "type": "function"
    },
    {
      "constant": false,
      "inputs": [
        {
          "name": "cid",
          "type": "uint256"
        }
      ],
      "name": "distIncome",
      "outputs": [],
      "payable": false,
      "stateMutability": "nonpayable",
      "type": "function"
    },
    {
      "constant": true,
      "inputs": [],
      "name": "getBalance",
      "outputs": [
        {
          "name": "",
          "type": "uint256"
        }
      ],
      "payable": false,
      "stateMutability": "view",
      "type": "function"
    },
    {
      "constant": true,
      "inputs": [
        {
          "name": "userAddress",
          "type": "address"
        }
      ],
      "name": "getUserIncomeBalance",
      "outputs": [
        {
          "name": "",
          "type": "uint256"
        }
      ],
      "payable": false,
      "stateMutability": "view",
      "type": "function"
    },
    {
      "constant": true,
      "inputs": [
        {
          "name": "userAddress",
          "type": "address"
        }
      ],
      "name": "getUserBalance",
      "outputs": [
        {
          "name": "",
          "type": "uint256"
        }
      ],
      "payable": false,
      "stateMutability": "view",
      "type": "function"
    },
    {
      "constant": false,
      "inputs": [
        {
          "name": "TrxAmount",
          "type": "uint256"
        }
      ],
      "name": "increaseVolume",
      "outputs": [],
      "payable": false,
      "stateMutability": "nonpayable",
      "type": "function"
    },
    {
      "constant": false,
      "inputs": [
        {
          "name": "cid",
          "type": "uint256"
        }
      ],
      "name": "closeSale",
      "outputs": [],
      "payable": false,
      "stateMutability": "nonpayable",
      "type": "function"
    },
    {
      "constant": false,
      "inputs": [
        {
          "name": "cid",
          "type": "uint256"
        }
      ],
      "name": "deactivatecar",
      "outputs": [],
      "payable": false,
      "stateMutability": "nonpayable",
      "type": "function"
    },
    {
      "constant": true,
      "inputs": [
        {
          "name": "userAd",
          "type": "address"
        }
      ],
      "name": "totalInvesmentUser",
      "outputs": [
        {
          "name": "",
          "type": "uint256"
        }
      ],
      "payable": false,
      "stateMutability": "view",
      "type": "function"
    },
    {
      "constant": true,
      "inputs": [
        {
          "name": "userAd",
          "type": "address"
        }
      ],
      "name": "allcarsofUser",
      "outputs": [
        {
          "name": "",
          "type": "uint256"
        }
      ],
      "payable": false,
      "stateMutability": "view",
      "type": "function"
    },
    {
      "constant": false,
      "inputs": [
        {
          "name": "adduser",
          "type": "address"
        },
        {
          "name": "nameuser",
          "type": "string"
        },
        {
          "name": "emailuser",
          "type": "string"
        },
        {
          "name": "passpuser",
          "type": "string"
        }
      ],
      "name": "userverify",
      "outputs": [],
      "payable": false,
      "stateMutability": "nonpayable",
      "type": "function"
    },
    {
      "constant": true,
      "inputs": [
        {
          "name": "adduser",
          "type": "address"
        }
      ],
      "name": "getUserName",
      "outputs": [
        {
          "name": "",
          "type": "string"
        }
      ],
      "payable": false,
      "stateMutability": "view",
      "type": "function"
    },
    {
      "constant": true,
      "inputs": [
        {
          "name": "adduser",
          "type": "address"
        }
      ],
      "name": "getUsePassport",
      "outputs": [
        {
          "name": "",
          "type": "string"
        }
      ],
      "payable": false,
      "stateMutability": "view",
      "type": "function"
    },
    {
      "constant": true,
      "inputs": [
        {
          "name": "adduser",
          "type": "address"
        }
      ],
      "name": "getUserEmail",
      "outputs": [
        {
          "name": "",
          "type": "string"
        }
      ],
      "payable": false,
      "stateMutability": "view",
      "type": "function"
    },
    {
      "constant": true,
      "inputs": [
        {
          "name": "adduser",
          "type": "address"
        }
      ],
      "name": "getUserVerified",
      "outputs": [
        {
          "name": "",
          "type": "bool"
        }
      ],
      "payable": false,
      "stateMutability": "view",
      "type": "function"
    }
  ],
  "bytecode": "0x60806040526000808190555060006001819055506116c0806100226000396000f300608060405260043610610132576000357c0100000000000000000000000000000000000000000000000000000000900463ffffffff1680624ecb59146101375780630bff9b681461016257806310a44746146101b957806312065fe0146102105780632abacf8c1461023b578063477348921461028057806357bdd90a146102d7578063599885a71461032e5780635e0ea4fe146104435780635ed6b93d1461046e578063641805ff1461049b578063713942f7146104dc5780637a0aa29d1461053757806382a33c89146105645780639480e9481461058457806396c7e808146106405780639ab891ba146106fc578063a299cfe91461073f578063a4223d531461076c578063ae49272f14610799578063d84f55ee146107b9578063e3eb466f14610875578063e757223014610942575b600080fd5b34801561014357600080fd5b5061014c610983565b6040518082815260200191505060405180910390f35b34801561016e57600080fd5b506101a3600480360381019080803573ffffffffffffffffffffffffffffffffffffffff16906020019092919050505061098d565b6040518082815260200191505060405180910390f35b3480156101c557600080fd5b506101fa600480360381019080803573ffffffffffffffffffffffffffffffffffffffff169060200190929190505050610a1e565b6040518082815260200191505060405180910390f35b34801561021c57600080fd5b50610225610a6a565b6040518082815260200191505060405180910390f35b34801561024757600080fd5b5061026660048036038101908080359060200190929190505050610a89565b604051808215151515815260200191505060405180910390f35b34801561028c57600080fd5b506102c1600480360381019080803573ffffffffffffffffffffffffffffffffffffffff169060200190929190505050610ab6565b6040518082815260200191505060405180910390f35b3480156102e357600080fd5b50610318600480360381019080803573ffffffffffffffffffffffffffffffffffffffff169060200190929190505050610ad7565b6040518082815260200191505060405180910390f35b34801561033a57600080fd5b50610441600480360381019080803573ffffffffffffffffffffffffffffffffffffffff169060200190929190803590602001908201803590602001908080601f0160208091040260200160405190810160405280939291908181526020018383808284378201915050505050509192919290803590602001908201803590602001908080601f0160208091040260200160405190810160405280939291908181526020018383808284378201915050505050509192919290803590602001908201803590602001908080601f0160208091040260200160405190810160405280939291908181526020018383808284378201915050505050509192919290505050610b68565b005b34801561044f57600080fd5b50610458610c6e565b6040518082815260200191505060405180910390f35b34801561047a57600080fd5b5061049960048036038101908080359060200190929190505050610c77565b005b3480156104a757600080fd5b506104c660048036038101908080359060200190929190505050610ca9565b6040518082815260200191505060405180910390f35b3480156104e857600080fd5b5061051d600480360381019080803573ffffffffffffffffffffffffffffffffffffffff169060200190929190505050610cc9565b604051808215151515815260200191505060405180910390f35b34801561054357600080fd5b5061056260048036038101908080359060200190929190505050610d22565b005b61058260048036038101908080359060200190929190505050610e1d565b005b34801561059057600080fd5b506105c5600480360381019080803573ffffffffffffffffffffffffffffffffffffffff169060200190929190505050610ffa565b6040518080602001828103825283818151815260200191508051906020019080838360005b838110156106055780820151818401526020810190506105ea565b50505050905090810190601f1680156106325780820380516001836020036101000a031916815260200191505b509250505060405180910390f35b34801561064c57600080fd5b50610681600480360381019080803573ffffffffffffffffffffffffffffffffffffffff1690602001909291905050506110de565b6040518080602001828103825283818151815260200191508051906020019080838360005b838110156106c15780820151818401526020810190506106a6565b50505050905090810190601f1680156106ee5780820380516001836020036101000a031916815260200191505b509250505060405180910390f35b34801561070857600080fd5b5061073d600480360381019080803573ffffffffffffffffffffffffffffffffffffffff1690602001909291905050506111c2565b005b34801561074b57600080fd5b5061076a6004803603810190808035906020019092919050505061129c565b005b34801561077857600080fd5b50610797600480360381019080803590602001909291905050506112af565b005b6107b760048036038101908080359060200190929190505050611316565b005b3480156107c557600080fd5b506107fa600480360381019080803573ffffffffffffffffffffffffffffffffffffffff169060200190929190505050611361565b6040518080602001828103825283818151815260200191508051906020019080838360005b8381101561083a57808201518184015260208101905061081f565b50505050905090810190601f1680156108675780820380516001836020036101000a031916815260200191505b509250505060405180910390f35b34801561088157600080fd5b5061092c60048036038101908080359060200190929190803590602001908201803590602001908080601f0160208091040260200160405190810160405280939291908181526020018383808284378201915050505050509192919290803590602001908201803590602001908080601f0160208091040260200160405190810160405280939291908181526020018383808284378201915050505050509192919290505050611445565b6040518082815260200191505060405180910390f35b34801561094e57600080fd5b5061096d6004803603810190808035906020019092919050505061159a565b6040518082815260200191505060405180910390f35b6000600154905090565b600080600080600360008673ffffffffffffffffffffffffffffffffffffffff1673ffffffffffffffffffffffffffffffffffffffff168152602001908152602001600020925060009150600090505b8260040154811015610a1357826006016000828152602001908152602001600020600101548201915080806001019150506109dd565b819350505050919050565b6000600360008373ffffffffffffffffffffffffffffffffffffffff1673ffffffffffffffffffffffffffffffffffffffff168152602001908152602001600020600501549050919050565b60003073ffffffffffffffffffffffffffffffffffffffff1631905090565b60006002600083815260200190815260200160002060040160009054906101000a900460ff169050919050565b60008173ffffffffffffffffffffffffffffffffffffffff16319050919050565b600080600080600360008673ffffffffffffffffffffffffffffffffffffffff1673ffffffffffffffffffffffffffffffffffffffff168152602001908152602001600020925060009150600090505b8260040154811015610b5d5782600601600082815260200190815260200160002060010154820191508080600101915050610b27565b819350505050919050565b60c060405190810160405280848152602001838152602001828152602001600115158152602001600081526020016000815250600360008673ffffffffffffffffffffffffffffffffffffffff1673ffffffffffffffffffffffffffffffffffffffff1681526020019081526020016000206000820151816000019080519060200190610bf69291906115ef565b506020820151816001019080519060200190610c139291906115ef565b506040820151816002019080519060200190610c309291906115ef565b5060608201518160030160006101000a81548160ff0219169083151502179055506080820151816004015560a0820151816005015590505050505050565b60008054905090565b60006002600083815260200190815260200160002060070160006101000a81548160ff02191690831515021790555050565b600060026000838152602001908152602001600020600301549050919050565b6000600360008373ffffffffffffffffffffffffffffffffffffffff1673ffffffffffffffffffffffffffffffffffffffff16815260200190815260200160002060030160009054906101000a900460ff169050919050565b600080600080600260008681526020019081526020016000209350836008015492506000846008018190555060009150620186a083811515610d6057fe5b0490505b8360020154821015610e16578084600a01600084815260200190815260200160002060020154026003600086600a01600086815260200190815260200160002060000160009054906101000a900473ffffffffffffffffffffffffffffffffffffffff1673ffffffffffffffffffffffffffffffffffffffff1673ffffffffffffffffffffffffffffffffffffffff168152602001908152602001600020600501819055508180600101925050610d64565b5050505050565b6000806000610e2b84610ca9565b610e348561159a565b033411151515610e4357600080fd5b600360003373ffffffffffffffffffffffffffffffffffffffff1673ffffffffffffffffffffffffffffffffffffffff16815260200190815260200160002092508260030160009054906101000a900460ff161515610ea157600080fd5b600260008581526020019081526020016000209150610ec43483600101546115ba565b90506060604051908101604052803373ffffffffffffffffffffffffffffffffffffffff1681526020013481526020018281525082600a01600084600201600081548092919060010191905055815260200190815260200160002060008201518160000160006101000a81548173ffffffffffffffffffffffffffffffffffffffff021916908373ffffffffffffffffffffffffffffffffffffffff16021790555060208201518160010155604082015181600201559050503482600301600082825401925050819055506040805190810160405280858152602001348152508360060160008560040160008154809291906001019190505581526020019081526020016000206000820151816000015560208201518160010155905050610feb3461129c565b610ff4846112af565b50505050565b6060600360008373ffffffffffffffffffffffffffffffffffffffff1673ffffffffffffffffffffffffffffffffffffffff1681526020019081526020016000206001018054600181600116156101000203166002900480601f0160208091040260200160405190810160405280929190818152602001828054600181600116156101000203166002900480156110d25780601f106110a7576101008083540402835291602001916110d2565b820191906000526020600020905b8154815290600101906020018083116110b557829003601f168201915b50505050509050919050565b6060600360008373ffffffffffffffffffffffffffffffffffffffff1673ffffffffffffffffffffffffffffffffffffffff1681526020019081526020016000206002018054600181600116156101000203166002900480601f0160208091040260200160405190810160405280929190818152602001828054600181600116156101000203166002900480156111b65780601f1061118b576101008083540402835291602001916111b6565b820191906000526020600020905b81548152906001019060200180831161119957829003601f168201915b50505050509050919050565b6000600360008373ffffffffffffffffffffffffffffffffffffffff1673ffffffffffffffffffffffffffffffffffffffff1681526020019081526020016000206005015490506000600360008473ffffffffffffffffffffffffffffffffffffffff1673ffffffffffffffffffffffffffffffffffffffff168152602001908152602001600020600501819055508173ffffffffffffffffffffffffffffffffffffffff166108fc829081150290604051600060405180830381858888f19350505050158015611297573d6000803e3d6000fd5b505050565b8060016000828254019250508190555050565b6002600082815260200190815260200160002060030154600260008381526020019081526020016000206001015414156113135760006002600083815260200190815260200160002060040160006101000a81548160ff0219169083151502179055505b50565b60006002600083815260200190815260200160002090508060040160009054906101000a900460ff1615151561134b57600080fd5b3481600801600082825401925050819055505050565b6060600360008373ffffffffffffffffffffffffffffffffffffffff1673ffffffffffffffffffffffffffffffffffffffff1681526020019081526020016000206000018054600181600116156101000203166002900480601f0160208091040260200160405190810160405280929190818152602001828054600181600116156101000203166002900480156114395780601f1061140e57610100808354040283529160200191611439565b820191906000526020600020905b81548152906001019060200180831161141c57829003601f168201915b50505050509050919050565b600080600080815480929190600101919050559050610140604051908101604052808281526020018681526020016000815260200160008152602001600115158152602001858152602001848152602001600115158152602001600081526020016000815250600260008381526020019081526020016000206000820151816000015560208201518160010155604082015181600201556060820151816003015560808201518160040160006101000a81548160ff02191690831515021790555060a08201518160050190805190602001906115229291906115ef565b5060c082015181600601908051906020019061153f9291906115ef565b5060e08201518160070160006101000a81548160ff0219169083151502179055506101008201518160080155610120820151816009015590505060026000828152602001908152602001600020600101549150509392505050565b600060026000838152602001908152602001600020600101549050919050565b6000806000620f424085029150600a600585848115156115d657fe5b04018115156115e157fe5b049050809250505092915050565b828054600181600116156101000203166002900490600052602060002090601f016020900481019282601f1061163057805160ff191683800117855561165e565b8280016001018555821561165e579182015b8281111561165d578251825591602001919060010190611642565b5b50905061166b919061166f565b5090565b61169191905b8082111561168d576000816000905550600101611675565b5090565b905600a165627a7a7230582016ebde7fe21e4533762c8760a1e00a5e832f0bd0a684c00e6b747d3d8d6bf84f0029",
  "source": "pragma solidity ^0.4.17;\n\ncontract Crowdfunding{\n\n  uint numofcars;\n  uint TotalVolume;\n\n  // Defines the owners\n  struct Owner{\n    address owner_addr;\n    uint value;\n    uint equity; // out of 100,000\n  }\n\n  struct Car{\n    uint carID;\n    uint price;\n    uint numofowners;\n    uint amountRaised;\n    bool ForSale;\n    string numplate;\n    string EngNum;\n    bool active;\n    uint incomeBal;\n    uint millage;\n    mapping (uint => Owner) Owners;\n  }\n\n  mapping (uint => Car) Cars;\n\n\n  struct User{\n    string name;\n    string email;\n    string passportnum;\n    bool verified;\n    uint numofinvestments;\n    uint balance;\n    mapping (uint=>Ownership) Ownerships;\n  }\n\n  struct Ownership{\n    uint carid;\n    uint amount;\n  }\n\n  mapping (address=>User)Users;\n\n  constructor() public payable {\n    numofcars = 0;\n    TotalVolume = 0;\n  }\n\n\n\n\n  function newcar(uint priceofCar,string nump,string engn) public returns(uint){\n    uint CARid = numofcars++;\n    //initializing numofowners, amountRaised to 0 and ForSale to true\n    Cars[CARid] = Car(CARid,priceofCar,0,0,true,nump,engn,true,0,0);\n     //carID,price,numofowners,amountRaised,ForSale, numplate,EngNum,active,incomeBal, millage;\n\n\n    return Cars[CARid].price;\n  }\n\n  function buycar(uint cid) public payable{\n    require(msg.value<=getPrice(cid)-getAmountRaised(cid));\n    User storage tempUsr = Users[msg.sender];\n    require(tempUsr.verified);\n    /* require(Users[msg.sender].verified == true); */\n    Car storage tempCar = Cars[cid];\n\n    uint eq = equityercent(msg.value,tempCar.price);\n\n    tempCar.Owners[tempCar.numofowners++]= Owner(msg.sender,msg.value,eq);\n    tempCar.amountRaised += msg.value;\n\n    tempUsr.Ownerships[tempUsr.numofinvestments++] = Ownership(cid, msg.value);\n    increaseVolume(msg.value);\n    closeSale(cid);\n  }\n\n  function equityercent(uint investment, uint priceofCar) private pure returns(uint) {\n    //this function returns equity against 100,000\n\n    uint _numerator  = investment * 10 ** (6);\n    // with rounding of last digit\n    uint equity =  ((_numerator / priceofCar) + 5) / 10;\n    return (equity);\n  }\n\n\n  function getNumofCars()public view returns(uint){\n    return numofcars;\n  }\n\n  function getPrice(uint cid) public view returns(uint){\n    return Cars[cid].price;\n  }\n\n  function getTotalVol() public view returns(uint){\n    return TotalVolume;\n  }\n\n  function getAmountRaised(uint cid) public view returns(uint){\n    return Cars[cid].amountRaised;\n  }\n\n  function getForSale(uint cid) public view returns(bool) {\n    return Cars[cid].ForSale;\n  }\n\n  function carincome(uint cid) public payable{\n    Car storage tempCar = Cars[cid];\n    require(!tempCar.ForSale);\n    // storing income on car\n\n    tempCar.incomeBal += msg.value;\n\n  }\n\n  function claimEarnings(address userad)public {\n    uint earnings = Users[userad].balance;\n    Users[userad].balance = 0;\n    userad.transfer(earnings);\n  }\n\n  function distIncome(uint cid) public {\n    Car storage tempCar = Cars[cid];\n    uint tempBal = tempCar.incomeBal;\n    tempCar.incomeBal = 0;\n    uint i= 0;\n    uint payout = tempBal/100000;\n    for(i;i<tempCar.numofowners;i++){\n      Users[tempCar.Owners[i].owner_addr].balance = tempCar.Owners[i].equity*payout;\n    }\n\n  }\n  // to check balance of this contract\n  function getBalance() public view returns(uint){\n    return address(this).balance;\n  }\n\n  function getUserIncomeBalance(address userAddress) public view returns(uint){\n    return Users[userAddress].balance;\n  }\n\n  // to check user balance\n  function getUserBalance(address userAddress) public view returns(uint){\n    return address(userAddress).balance;\n  }\n\n  function increaseVolume(uint TrxAmount)public{\n    TotalVolume += TrxAmount;\n  }\n\n  function closeSale(uint cid) public{\n    if(Cars[cid].price==Cars[cid].amountRaised)\n    {\n      Cars[cid].ForSale = false;\n    }\n  }\n\n  function deactivatecar(uint cid) public {\n    Cars[cid].active = false;\n  }\n\n  //return total investment amount of a user\n  function totalInvesmentUser(address userAd)public view returns(uint){\n    User storage tempUser = Users[userAd];\n    uint totalInv=0;\n    for(uint x=0; x<tempUser.numofinvestments;x++)\n    {\n      totalInv = totalInv + tempUser.Ownerships[x].amount;\n    }\n\n    return totalInv;\n  }\n\n  function allcarsofUser(address userAd)public view returns(uint){\n    User storage tempUser = Users[userAd];\n    uint totalInv=0;\n    for(uint x=0; x<tempUser.numofinvestments;x++)\n    {\n      totalInv = totalInv + tempUser.Ownerships[x].amount;\n    }\n\n    return totalInv;\n  }\n  function userverify(address adduser, string nameuser, string emailuser, string passpuser)public{\n    Users[adduser] = User(nameuser,emailuser,passpuser,true,0,0);\n  }\n  function getUserName(address adduser)public view returns(string){\n    return Users[adduser].name;\n  }\n  function getUsePassport(address adduser)public view returns(string){\n    return Users[adduser].passportnum;\n  }\n  function getUserEmail(address adduser)public view returns(string){\n    return Users[adduser].email;\n  }\n  function getUserVerified(address adduser)public view returns(bool){\n    return Users[adduser].verified;\n  }\n\n\n\n}\n",
  "sourcePath": "/home/devaka/My Projects/Autonovest-final/contracts/Crowdfunding.sol",
  "compiler": {
    "name": "solc",
    "version": "0.4.24+commit.e67f0147.Emscripten.clang"
  },
  "schemaVersion": "2.0.1",
  "updatedAt": "2018-10-06T20:40:50.970Z"
}