{
  "contractName": "tt",
  "abi": [
    {
      "inputs": [],
      "payable": false,
      "stateMutability": "nonpayable",
      "type": "constructor"
    },
    {
      "constant": false,
      "inputs": [
        {
          "name": "priceofCar",
          "type": "uint256"
        },
        {
          "name": "nump",
          "type": "string"
        },
        {
          "name": "engn",
          "type": "string"
        }
      ],
      "name": "newcar",
      "outputs": [
        {
          "name": "",
          "type": "uint256"
        }
      ],
      "payable": false,
      "stateMutability": "nonpayable",
      "type": "function"
    },
    {
      "constant": false,
      "inputs": [
        {
          "name": "cid",
          "type": "uint256"
        }
      ],
      "name": "buycar",
      "outputs": [],
      "payable": true,
      "stateMutability": "payable",
      "type": "function"
    },
    {
      "constant": true,
      "inputs": [],
      "name": "getNumofCars",
      "outputs": [
        {
          "name": "",
          "type": "uint256"
        }
      ],
      "payable": false,
      "stateMutability": "view",
      "type": "function"
    },
    {
      "constant": true,
      "inputs": [
        {
          "name": "cid",
          "type": "uint256"
        }
      ],
      "name": "getPrice",
      "outputs": [
        {
          "name": "",
          "type": "uint256"
        }
      ],
      "payable": false,
      "stateMutability": "view",
      "type": "function"
    },
    {
      "constant": true,
      "inputs": [
        {
          "name": "cid",
          "type": "uint256"
        }
      ],
      "name": "getAmountRaised",
      "outputs": [
        {
          "name": "",
          "type": "uint256"
        }
      ],
      "payable": false,
      "stateMutability": "view",
      "type": "function"
    },
    {
      "constant": true,
      "inputs": [
        {
          "name": "cid",
          "type": "uint256"
        }
      ],
      "name": "getForSale",
      "outputs": [
        {
          "name": "",
          "type": "bool"
        }
      ],
      "payable": false,
      "stateMutability": "view",
      "type": "function"
    },
    {
      "constant": false,
      "inputs": [
        {
          "name": "cid",
          "type": "uint256"
        }
      ],
      "name": "carincome",
      "outputs": [],
      "payable": true,
      "stateMutability": "payable",
      "type": "function"
    },
    {
      "constant": true,
      "inputs": [],
      "name": "getBalance",
      "outputs": [
        {
          "name": "",
          "type": "uint256"
        }
      ],
      "payable": false,
      "stateMutability": "view",
      "type": "function"
    },
    {
      "constant": true,
      "inputs": [
        {
          "name": "userAddress",
          "type": "address"
        }
      ],
      "name": "getUserBalance",
      "outputs": [
        {
          "name": "",
          "type": "uint256"
        }
      ],
      "payable": false,
      "stateMutability": "view",
      "type": "function"
    },
    {
      "constant": false,
      "inputs": [
        {
          "name": "TrxAmount",
          "type": "uint256"
        }
      ],
      "name": "increaseVolume",
      "outputs": [],
      "payable": false,
      "stateMutability": "nonpayable",
      "type": "function"
    },
    {
      "constant": false,
      "inputs": [
        {
          "name": "cid",
          "type": "uint256"
        }
      ],
      "name": "closeSale",
      "outputs": [],
      "payable": false,
      "stateMutability": "nonpayable",
      "type": "function"
    },
    {
      "constant": true,
      "inputs": [
        {
          "name": "userad",
          "type": "address"
        }
      ],
      "name": "usersOwnership",
      "outputs": [
        {
          "name": "",
          "type": "uint256"
        }
      ],
      "payable": false,
      "stateMutability": "view",
      "type": "function"
    }
  ],
  "bytecode": "0x608060405234801561001057600080fd5b506000808190555060006001819055506108d58061002f6000396000f3006080604052600436106100ba576000357c0100000000000000000000000000000000000000000000000000000000900463ffffffff16806312065fe0146100bf5780632abacf8c146100ea578063477348921461012f5780635e0ea4fe14610186578063641805ff146101b15780636eb77132146101f257806382a33c8914610249578063a299cfe914610269578063a4223d5314610296578063ae49272f146102c3578063e3eb466f146102e3578063e7572230146103b0575b600080fd5b3480156100cb57600080fd5b506100d46103f1565b6040518082815260200191505060405180910390f35b3480156100f657600080fd5b5061011560048036038101908080359060200190929190505050610410565b604051808215151515815260200191505060405180910390f35b34801561013b57600080fd5b50610170600480360381019080803573ffffffffffffffffffffffffffffffffffffffff16906020019092919050505061043d565b6040518082815260200191505060405180910390f35b34801561019257600080fd5b5061019b61045e565b6040518082815260200191505060405180910390f35b3480156101bd57600080fd5b506101dc60048036038101908080359060200190929190505050610467565b6040518082815260200191505060405180910390f35b3480156101fe57600080fd5b50610233600480360381019080803573ffffffffffffffffffffffffffffffffffffffff169060200190929190505050610487565b6040518082815260200191505060405180910390f35b6102676004803603810190808035906020019092919050505061048e565b005b34801561027557600080fd5b506102946004803603810190808035906020019092919050505061062a565b005b3480156102a257600080fd5b506102c16004803603810190808035906020019092919050505061063d565b005b6102e1600480360381019080803590602001909291905050506106a4565b005b3480156102ef57600080fd5b5061039a60048036038101908080359060200190929190803590602001908201803590602001908080601f0160208091040260200160405190810160405280939291908181526020018383808284378201915050505050509192919290803590602001908201803590602001908080601f01602080910402602001604051908101604052809392919081815260200183838082843782019150505050505091929192905050506106dd565b6040518082815260200191505060405180910390f35b3480156103bc57600080fd5b506103db600480360381019080803590602001909291905050506107e4565b6040518082815260200191505060405180910390f35b60003073ffffffffffffffffffffffffffffffffffffffff1631905090565b60006002600083815260200190815260200160002060040160009054906101000a900460ff169050919050565b60008173ffffffffffffffffffffffffffffffffffffffff16319050919050565b60008054905090565b600060026000838152602001908152602001600020600301549050919050565b6000919050565b60008061049a83610467565b6104a3846107e4565b0334111515156104b257600080fd5b60026000848152602001908152602001600020915060408051908101604052803373ffffffffffffffffffffffffffffffffffffffff1681526020013481525082600701600084600201600081548092919060010191905055815260200190815260200160002060008201518160000160006101000a81548173ffffffffffffffffffffffffffffffffffffffff021916908373ffffffffffffffffffffffffffffffffffffffff16021790555060208201518160010155905050348260030160008282540192505081905550600360003373ffffffffffffffffffffffffffffffffffffffff1673ffffffffffffffffffffffffffffffffffffffff1681526020019081526020016000209050604080519081016040528084815260200134815250816003016000836002016000815480929190600101919050558152602001908152602001600020600082015181600001556020820151816001015590505061061c3461062a565b6106258361063d565b505050565b8060016000828254019250508190555050565b6002600082815260200190815260200160002060030154600260008381526020019081526020016000206001015414156106a15760006002600083815260200190815260200160002060040160006101000a81548160ff0219169083151502179055505b50565b60006002600083815260200190815260200160002090508060040160009054906101000a900460ff161515156106d957600080fd5b5050565b60008060008081548092919060010191905055905060e060405190810160405280828152602001868152602001600081526020016000815260200160011515815260200185815260200184815250600260008381526020019081526020016000206000820151816000015560208201518160010155604082015181600201556060820151816003015560808201518160040160006101000a81548160ff02191690831515021790555060a08201518160050190805190602001906107a2929190610804565b5060c08201518160060190805190602001906107bf929190610804565b5090505060026000828152602001908152602001600020600101549150509392505050565b600060026000838152602001908152602001600020600101549050919050565b828054600181600116156101000203166002900490600052602060002090601f016020900481019282601f1061084557805160ff1916838001178555610873565b82800160010185558215610873579182015b82811115610872578251825591602001919060010190610857565b5b5090506108809190610884565b5090565b6108a691905b808211156108a257600081600090555060010161088a565b5090565b905600a165627a7a7230582077bd82c9b125e1443aecf94b285773ce46fd69a140d0f767b06978a954c0f44b0029",
  "source": "pragma solidity ^0.4.17;\n\ncontract tt{\n\n  uint numofcars;\n  uint TotalVolume;\n  // Defines the owners\n  struct Owner{\n    address owner_addr;\n    uint value;\n  }\n\n  struct Car{\n    uint carID;\n    uint price;\n    uint numofowners;\n    uint amountRaised;\n    bool ForSale;\n    string numplate;\n    string EngNum;\n    mapping (uint => Owner) Owners;\n  }\n\n  struct User{\n    string name;\n    string email;\n    uint numofinvestments;\n    mapping (uint=>Ownership) Ownerships;\n  }\n\n  struct Ownership{\n    uint carid;\n    uint amount;\n  }\n\n  mapping (uint => Car) Cars;\n  mapping (address=>User) Users;\n\n  constructor() public {\n    numofcars = 0;\n    TotalVolume = 0;\n  }\n\nfunction newcar(uint priceofCar,string nump,string engn) public returns(uint){\n  uint CARid = numofcars++;\n  //initializing numofowners, amountRaised to 0 and ForSale to true\n  Cars[CARid] = Car(CARid,priceofCar,0,0,true,nump,engn);\n\n  return Cars[CARid].price;\n}\n\nfunction buycar(uint cid) public payable{\n  require(msg.value<=getPrice(cid)-getAmountRaised(cid));\n  Car storage tempCar = Cars[cid];\ntempCar.Owners[tempCar.numofowners++]= Owner(msg.sender,msg.value);\n  tempCar.amountRaised += msg.value;\n  User storage tempUsr = Users[msg.sender];\n  tempUsr.Ownerships[tempUsr.numofinvestments++] = Ownership(cid, msg.value);\n  increaseVolume(msg.value);\n  closeSale(cid);\n}\n\nfunction getNumofCars()public view returns(uint){\n  return numofcars;\n}\n\nfunction getPrice(uint cid) public view returns(uint){\nreturn Cars[cid].price;\n}\n\nfunction getAmountRaised(uint cid) public view returns(uint){\n  return Cars[cid].amountRaised;\n}\n\nfunction getForSale(uint cid) public view returns(bool) {\n  return Cars[cid].ForSale;\n}\n\nfunction carincome(uint cid) public payable{\nCar storage tempCar = Cars[cid];\nrequire(!tempCar.ForSale);\n// handle income and distribution\n\n\n}\n\n// to check balance of this contract\nfunction getBalance() public view returns(uint){\n  return address(this).balance;\n}\n\n// to check user balance\nfunction getUserBalance(address userAddress) public view returns(uint){\n  return address(userAddress).balance;\n}\n\nfunction increaseVolume(uint TrxAmount)public{\n  TotalVolume += TrxAmount;\n}\n\nfunction closeSale(uint cid) public{\n  if(Cars[cid].price==Cars[cid].amountRaised)\n  {\n    Cars[cid].ForSale = false;\n  }\n}\n\nfunction usersOwnership(address userad)public view returns(uint){\n\n\n}\n\n\n\n\n}\n/* https://solidity.readthedocs.io/en/v0.4.21/types.html#reference-types */\n",
  "sourcePath": "/home/devaka/My Projects/Autonovest-final/contracts/tt.sol",
  "compiler": {
    "name": "solc",
    "version": "0.4.24+commit.e67f0147.Emscripten.clang"
  },
  "schemaVersion": "2.0.1",
  "updatedAt": "2018-09-09T13:10:32.905Z"
}